{
  "_format": "hh-sol-artifact-1",
  "contractName": "SanctumToken",
  "sourceName": "contracts/SanctumToken.sol",
  "abi": [
    {
      "inputs": [
        {
          "internalType": "address",
          "name": "_dexLiquidityAddress",
          "type": "address"
        }
      ],
      "stateMutability": "nonpayable",
      "type": "constructor"
    },
    {
      "inputs": [],
      "name": "ECDSAInvalidSignature",
      "type": "error"
    },
    {
      "inputs": [
        {
          "internalType": "uint256",
          "name": "length",
          "type": "uint256"
        }
      ],
      "name": "ECDSAInvalidSignatureLength",
      "type": "error"
    },
    {
      "inputs": [
        {
          "internalType": "bytes32",
          "name": "s",
          "type": "bytes32"
        }
      ],
      "name": "ECDSAInvalidSignatureS",
      "type": "error"
    },
    {
      "inputs": [
        {
          "internalType": "address",
          "name": "spender",
          "type": "address"
        },
        {
          "internalType": "uint256",
          "name": "allowance",
          "type": "uint256"
        },
        {
          "internalType": "uint256",
          "name": "needed",
          "type": "uint256"
        }
      ],
      "name": "ERC20InsufficientAllowance",
      "type": "error"
    },
    {
      "inputs": [
        {
          "internalType": "address",
          "name": "sender",
          "type": "address"
        },
        {
          "internalType": "uint256",
          "name": "balance",
          "type": "uint256"
        },
        {
          "internalType": "uint256",
          "name": "needed",
          "type": "uint256"
        }
      ],
      "name": "ERC20InsufficientBalance",
      "type": "error"
    },
    {
      "inputs": [
        {
          "internalType": "address",
          "name": "approver",
          "type": "address"
        }
      ],
      "name": "ERC20InvalidApprover",
      "type": "error"
    },
    {
      "inputs": [
        {
          "internalType": "address",
          "name": "receiver",
          "type": "address"
        }
      ],
      "name": "ERC20InvalidReceiver",
      "type": "error"
    },
    {
      "inputs": [
        {
          "internalType": "address",
          "name": "sender",
          "type": "address"
        }
      ],
      "name": "ERC20InvalidSender",
      "type": "error"
    },
    {
      "inputs": [
        {
          "internalType": "address",
          "name": "spender",
          "type": "address"
        }
      ],
      "name": "ERC20InvalidSpender",
      "type": "error"
    },
    {
      "inputs": [
        {
          "internalType": "uint256",
          "name": "deadline",
          "type": "uint256"
        }
      ],
      "name": "ERC2612ExpiredSignature",
      "type": "error"
    },
    {
      "inputs": [
        {
          "internalType": "address",
          "name": "signer",
          "type": "address"
        },
        {
          "internalType": "address",
          "name": "owner",
          "type": "address"
        }
      ],
      "name": "ERC2612InvalidSigner",
      "type": "error"
    },
    {
      "inputs": [
        {
          "internalType": "address",
          "name": "account",
          "type": "address"
        },
        {
          "internalType": "uint256",
          "name": "currentNonce",
          "type": "uint256"
        }
      ],
      "name": "InvalidAccountNonce",
      "type": "error"
    },
    {
      "inputs": [],
      "name": "InvalidShortString",
      "type": "error"
    },
    {
      "inputs": [
        {
          "internalType": "address",
          "name": "owner",
          "type": "address"
        }
      ],
      "name": "OwnableInvalidOwner",
      "type": "error"
    },
    {
      "inputs": [
        {
          "internalType": "address",
          "name": "account",
          "type": "address"
        }
      ],
      "name": "OwnableUnauthorizedAccount",
      "type": "error"
    },
    {
      "inputs": [
        {
          "internalType": "string",
          "name": "str",
          "type": "string"
        }
      ],
      "name": "StringTooLong",
      "type": "error"
    },
    {
      "anonymous": false,
      "inputs": [
        {
          "indexed": true,
          "internalType": "address",
          "name": "owner",
          "type": "address"
        },
        {
          "indexed": true,
          "internalType": "address",
          "name": "spender",
          "type": "address"
        },
        {
          "indexed": false,
          "internalType": "uint256",
          "name": "value",
          "type": "uint256"
        }
      ],
      "name": "Approval",
      "type": "event"
    },
    {
      "anonymous": false,
      "inputs": [
        {
          "indexed": false,
          "internalType": "uint256",
          "name": "newPercentage",
          "type": "uint256"
        }
      ],
      "name": "BuybackPercentageUpdated",
      "type": "event"
    },
    {
      "anonymous": false,
      "inputs": [
        {
          "indexed": true,
          "internalType": "address",
          "name": "distributor",
          "type": "address"
        }
      ],
      "name": "DistributorAdded",
      "type": "event"
    },
    {
      "anonymous": false,
      "inputs": [
        {
          "indexed": true,
          "internalType": "address",
          "name": "distributor",
          "type": "address"
        }
      ],
      "name": "DistributorRemoved",
      "type": "event"
    },
    {
      "anonymous": false,
      "inputs": [],
      "name": "EIP712DomainChanged",
      "type": "event"
    },
    {
      "anonymous": false,
      "inputs": [
        {
          "indexed": true,
          "internalType": "address",
          "name": "to",
          "type": "address"
        },
        {
          "indexed": false,
          "internalType": "uint256",
          "name": "amount",
          "type": "uint256"
        }
      ],
      "name": "MaticWithdrawn",
      "type": "event"
    },
    {
      "anonymous": false,
      "inputs": [
        {
          "indexed": true,
          "internalType": "address",
          "name": "previousOwner",
          "type": "address"
        },
        {
          "indexed": true,
          "internalType": "address",
          "name": "newOwner",
          "type": "address"
        }
      ],
      "name": "OwnershipTransferStarted",
      "type": "event"
    },
    {
      "anonymous": false,
      "inputs": [
        {
          "indexed": true,
          "internalType": "address",
          "name": "previousOwner",
          "type": "address"
        },
        {
          "indexed": true,
          "internalType": "address",
          "name": "newOwner",
          "type": "address"
        }
      ],
      "name": "OwnershipTransferred",
      "type": "event"
    },
    {
      "anonymous": false,
      "inputs": [
        {
          "indexed": true,
          "internalType": "address",
          "name": "researcher",
          "type": "address"
        },
        {
          "indexed": false,
          "internalType": "uint256",
          "name": "amount",
          "type": "uint256"
        },
        {
          "indexed": false,
          "internalType": "string",
          "name": "modelId",
          "type": "string"
        }
      ],
      "name": "ResearchRewarded",
      "type": "event"
    },
    {
      "anonymous": false,
      "inputs": [
        {
          "indexed": false,
          "internalType": "uint256",
          "name": "amount",
          "type": "uint256"
        }
      ],
      "name": "RevenueCollected",
      "type": "event"
    },
    {
      "anonymous": false,
      "inputs": [
        {
          "indexed": false,
          "internalType": "uint256",
          "name": "newRate",
          "type": "uint256"
        }
      ],
      "name": "RewardRateUpdated",
      "type": "event"
    },
    {
      "anonymous": false,
      "inputs": [
        {
          "indexed": false,
          "internalType": "uint256",
          "name": "amount",
          "type": "uint256"
        },
        {
          "indexed": false,
          "internalType": "uint256",
          "name": "tokensBurned",
          "type": "uint256"
        }
      ],
      "name": "TokensBoughtBack",
      "type": "event"
    },
    {
      "anonymous": false,
      "inputs": [
        {
          "indexed": true,
          "internalType": "address",
          "name": "user",
          "type": "address"
        },
        {
          "indexed": false,
          "internalType": "uint256",
          "name": "amount",
          "type": "uint256"
        }
      ],
      "name": "TokensStaked",
      "type": "event"
    },
    {
      "anonymous": false,
      "inputs": [
        {
          "indexed": true,
          "internalType": "address",
          "name": "user",
          "type": "address"
        },
        {
          "indexed": false,
          "internalType": "uint256",
          "name": "amount",
          "type": "uint256"
        }
      ],
      "name": "TokensUnstaked",
      "type": "event"
    },
    {
      "anonymous": false,
      "inputs": [
        {
          "indexed": true,
          "internalType": "address",
          "name": "from",
          "type": "address"
        },
        {
          "indexed": true,
          "internalType": "address",
          "name": "to",
          "type": "address"
        },
        {
          "indexed": false,
          "internalType": "uint256",
          "name": "value",
          "type": "uint256"
        }
      ],
      "name": "Transfer",
      "type": "event"
    },
    {
      "inputs": [],
      "name": "COMMUNITY",
      "outputs": [
        {
          "internalType": "uint256",
          "name": "",
          "type": "uint256"
        }
      ],
      "stateMutability": "view",
      "type": "function"
    },
    {
      "inputs": [],
      "name": "DOMAIN_SEPARATOR",
      "outputs": [
        {
          "internalType": "bytes32",
          "name": "",
          "type": "bytes32"
        }
      ],
      "stateMutability": "view",
      "type": "function"
    },
    {
      "inputs": [],
      "name": "INITIAL_LIQUIDITY",
      "outputs": [
        {
          "internalType": "uint256",
          "name": "",
          "type": "uint256"
        }
      ],
      "stateMutability": "view",
      "type": "function"
    },
    {
      "inputs": [],
      "name": "MAX_SUPPLY",
      "outputs": [
        {
          "internalType": "uint256",
          "name": "",
          "type": "uint256"
        }
      ],
      "stateMutability": "view",
      "type": "function"
    },
    {
      "inputs": [],
      "name": "RESEARCH_REWARDS",
      "outputs": [
        {
          "internalType": "uint256",
          "name": "",
          "type": "uint256"
        }
      ],
      "stateMutability": "view",
      "type": "function"
    },
    {
      "inputs": [],
      "name": "STAKE_LOCK_PERIOD",
      "outputs": [
        {
          "internalType": "uint256",
          "name": "",
          "type": "uint256"
        }
      ],
      "stateMutability": "view",
      "type": "function"
    },
    {
      "inputs": [],
      "name": "TEAM_VESTING",
      "outputs": [
        {
          "internalType": "uint256",
          "name": "",
          "type": "uint256"
        }
      ],
      "stateMutability": "view",
      "type": "function"
    },
    {
      "inputs": [],
      "name": "acceptOwnership",
      "outputs": [],
      "stateMutability": "nonpayable",
      "type": "function"
    },
    {
      "inputs": [
        {
          "internalType": "address",
          "name": "_distributor",
          "type": "address"
        }
      ],
      "name": "addDistributor",
      "outputs": [],
      "stateMutability": "nonpayable",
      "type": "function"
    },
    {
      "inputs": [
        {
          "internalType": "address",
          "name": "owner",
          "type": "address"
        },
        {
          "internalType": "address",
          "name": "spender",
          "type": "address"
        }
      ],
      "name": "allowance",
      "outputs": [
        {
          "internalType": "uint256",
          "name": "",
          "type": "uint256"
        }
      ],
      "stateMutability": "view",
      "type": "function"
    },
    {
      "inputs": [
        {
          "internalType": "address",
          "name": "spender",
          "type": "address"
        },
        {
          "internalType": "uint256",
          "name": "value",
          "type": "uint256"
        }
      ],
      "name": "approve",
      "outputs": [
        {
          "internalType": "bool",
          "name": "",
          "type": "bool"
        }
      ],
      "stateMutability": "nonpayable",
      "type": "function"
    },
    {
      "inputs": [
        {
          "internalType": "address",
          "name": "account",
          "type": "address"
        }
      ],
      "name": "balanceOf",
      "outputs": [
        {
          "internalType": "uint256",
          "name": "",
          "type": "uint256"
        }
      ],
      "stateMutability": "view",
      "type": "function"
    },
    {
      "inputs": [
        {
          "internalType": "address[]",
          "name": "_researchers",
          "type": "address[]"
        },
        {
          "internalType": "uint256[]",
          "name": "_scores",
          "type": "uint256[]"
        },
        {
          "internalType": "string[]",
          "name": "_modelIds",
          "type": "string[]"
        }
      ],
      "name": "batchRewardResearchers",
      "outputs": [],
      "stateMutability": "nonpayable",
      "type": "function"
    },
    {
      "inputs": [
        {
          "internalType": "uint256",
          "name": "value",
          "type": "uint256"
        }
      ],
      "name": "burn",
      "outputs": [],
      "stateMutability": "nonpayable",
      "type": "function"
    },
    {
      "inputs": [
        {
          "internalType": "address",
          "name": "account",
          "type": "address"
        },
        {
          "internalType": "uint256",
          "name": "value",
          "type": "uint256"
        }
      ],
      "name": "burnFrom",
      "outputs": [],
      "stateMutability": "nonpayable",
      "type": "function"
    },
    {
      "inputs": [],
      "name": "buybackPercentage",
      "outputs": [
        {
          "internalType": "uint256",
          "name": "",
          "type": "uint256"
        }
      ],
      "stateMutability": "view",
      "type": "function"
    },
    {
      "inputs": [],
      "name": "collectRevenue",
      "outputs": [],
      "stateMutability": "payable",
      "type": "function"
    },
    {
      "inputs": [],
      "name": "decimals",
      "outputs": [
        {
          "internalType": "uint8",
          "name": "",
          "type": "uint8"
        }
      ],
      "stateMutability": "view",
      "type": "function"
    },
    {
      "inputs": [],
      "name": "eip712Domain",
      "outputs": [
        {
          "internalType": "bytes1",
          "name": "fields",
          "type": "bytes1"
        },
        {
          "internalType": "string",
          "name": "name",
          "type": "string"
        },
        {
          "internalType": "string",
          "name": "version",
          "type": "string"
        },
        {
          "internalType": "uint256",
          "name": "chainId",
          "type": "uint256"
        },
        {
          "internalType": "address",
          "name": "verifyingContract",
          "type": "address"
        },
        {
          "internalType": "bytes32",
          "name": "salt",
          "type": "bytes32"
        },
        {
          "internalType": "uint256[]",
          "name": "extensions",
          "type": "uint256[]"
        }
      ],
      "stateMutability": "view",
      "type": "function"
    },
    {
      "inputs": [
        {
          "internalType": "address",
          "name": "_researcher",
          "type": "address"
        }
      ],
      "name": "getResearcherStats",
      "outputs": [
        {
          "internalType": "uint256",
          "name": "testsCompleted",
          "type": "uint256"
        },
        {
          "internalType": "uint256",
          "name": "tokensEarned",
          "type": "uint256"
        },
        {
          "internalType": "uint256",
          "name": "stakedAmount",
          "type": "uint256"
        }
      ],
      "stateMutability": "view",
      "type": "function"
    },
    {
      "inputs": [
        {
          "internalType": "address",
          "name": "_user",
          "type": "address"
        },
        {
          "internalType": "uint256",
          "name": "_tierRequirement",
          "type": "uint256"
        }
      ],
      "name": "hasStakedForTier",
      "outputs": [
        {
          "internalType": "bool",
          "name": "",
          "type": "bool"
        }
      ],
      "stateMutability": "view",
      "type": "function"
    },
    {
      "inputs": [
        {
          "internalType": "address",
          "name": "",
          "type": "address"
        }
      ],
      "name": "isResearchDistributor",
      "outputs": [
        {
          "internalType": "bool",
          "name": "",
          "type": "bool"
        }
      ],
      "stateMutability": "view",
      "type": "function"
    },
    {
      "inputs": [
        {
          "internalType": "uint256",
          "name": "_amount",
          "type": "uint256"
        }
      ],
      "name": "manualBuyback",
      "outputs": [],
      "stateMutability": "nonpayable",
      "type": "function"
    },
    {
      "inputs": [],
      "name": "name",
      "outputs": [
        {
          "internalType": "string",
          "name": "",
          "type": "string"
        }
      ],
      "stateMutability": "view",
      "type": "function"
    },
    {
      "inputs": [
        {
          "internalType": "address",
          "name": "owner",
          "type": "address"
        }
      ],
      "name": "nonces",
      "outputs": [
        {
          "internalType": "uint256",
          "name": "",
          "type": "uint256"
        }
      ],
      "stateMutability": "view",
      "type": "function"
    },
    {
      "inputs": [],
      "name": "owner",
      "outputs": [
        {
          "internalType": "address",
          "name": "",
          "type": "address"
        }
      ],
      "stateMutability": "view",
      "type": "function"
    },
    {
      "inputs": [],
      "name": "pendingOwner",
      "outputs": [
        {
          "internalType": "address",
          "name": "",
          "type": "address"
        }
      ],
      "stateMutability": "view",
      "type": "function"
    },
    {
      "inputs": [
        {
          "internalType": "address",
          "name": "owner",
          "type": "address"
        },
        {
          "internalType": "address",
          "name": "spender",
          "type": "address"
        },
        {
          "internalType": "uint256",
          "name": "value",
          "type": "uint256"
        },
        {
          "internalType": "uint256",
          "name": "deadline",
          "type": "uint256"
        },
        {
          "internalType": "uint8",
          "name": "v",
          "type": "uint8"
        },
        {
          "internalType": "bytes32",
          "name": "r",
          "type": "bytes32"
        },
        {
          "internalType": "bytes32",
          "name": "s",
          "type": "bytes32"
        }
      ],
      "name": "permit",
      "outputs": [],
      "stateMutability": "nonpayable",
      "type": "function"
    },
    {
      "inputs": [
        {
          "internalType": "address",
          "name": "_distributor",
          "type": "address"
        }
      ],
      "name": "removeDistributor",
      "outputs": [],
      "stateMutability": "nonpayable",
      "type": "function"
    },
    {
      "inputs": [],
      "name": "renounceOwnership",
      "outputs": [],
      "stateMutability": "nonpayable",
      "type": "function"
    },
    {
      "inputs": [
        {
          "internalType": "address",
          "name": "",
          "type": "address"
        }
      ],
      "name": "researcherTestsCompleted",
      "outputs": [
        {
          "internalType": "uint256",
          "name": "",
          "type": "uint256"
        }
      ],
      "stateMutability": "view",
      "type": "function"
    },
    {
      "inputs": [
        {
          "internalType": "address",
          "name": "",
          "type": "address"
        }
      ],
      "name": "researcherTokensEarned",
      "outputs": [
        {
          "internalType": "uint256",
          "name": "",
          "type": "uint256"
        }
      ],
      "stateMutability": "view",
      "type": "function"
    },
    {
      "inputs": [],
      "name": "rewardRatePerTest",
      "outputs": [
        {
          "internalType": "uint256",
          "name": "",
          "type": "uint256"
        }
      ],
      "stateMutability": "view",
      "type": "function"
    },
    {
      "inputs": [
        {
          "internalType": "address",
          "name": "_researcher",
          "type": "address"
        },
        {
          "internalType": "uint256",
          "name": "_testScore",
          "type": "uint256"
        },
        {
          "internalType": "string",
          "name": "_modelId",
          "type": "string"
        }
      ],
      "name": "rewardResearcher",
      "outputs": [
        {
          "internalType": "uint256",
          "name": "rewardAmount",
          "type": "uint256"
        }
      ],
      "stateMutability": "nonpayable",
      "type": "function"
    },
    {
      "inputs": [
        {
          "internalType": "uint256",
          "name": "_percentage",
          "type": "uint256"
        }
      ],
      "name": "setBuybackPercentage",
      "outputs": [],
      "stateMutability": "nonpayable",
      "type": "function"
    },
    {
      "inputs": [
        {
          "internalType": "uint256",
          "name": "_newRate",
          "type": "uint256"
        }
      ],
      "name": "setRewardRate",
      "outputs": [],
      "stateMutability": "nonpayable",
      "type": "function"
    },
    {
      "inputs": [
        {
          "internalType": "uint256",
          "name": "_amount",
          "type": "uint256"
        }
      ],
      "name": "stakeTokens",
      "outputs": [],
      "stateMutability": "nonpayable",
      "type": "function"
    },
    {
      "inputs": [
        {
          "internalType": "address",
          "name": "",
          "type": "address"
        }
      ],
      "name": "stakedBalance",
      "outputs": [
        {
          "internalType": "uint256",
          "name": "",
          "type": "uint256"
        }
      ],
      "stateMutability": "view",
      "type": "function"
    },
    {
      "inputs": [
        {
          "internalType": "address",
          "name": "",
          "type": "address"
        }
      ],
      "name": "stakingStartTime",
      "outputs": [
        {
          "internalType": "uint256",
          "name": "",
          "type": "uint256"
        }
      ],
      "stateMutability": "view",
      "type": "function"
    },
    {
      "inputs": [],
      "name": "symbol",
      "outputs": [
        {
          "internalType": "string",
          "name": "",
          "type": "string"
        }
      ],
      "stateMutability": "view",
      "type": "function"
    },
    {
      "inputs": [],
      "name": "totalResearchRewardsDistributed",
      "outputs": [
        {
          "internalType": "uint256",
          "name": "",
          "type": "uint256"
        }
      ],
      "stateMutability": "view",
      "type": "function"
    },
    {
      "inputs": [],
      "name": "totalRevenueCollected",
      "outputs": [
        {
          "internalType": "uint256",
          "name": "",
          "type": "uint256"
        }
      ],
      "stateMutability": "view",
      "type": "function"
    },
    {
      "inputs": [],
      "name": "totalSupply",
      "outputs": [
        {
          "internalType": "uint256",
          "name": "",
          "type": "uint256"
        }
      ],
      "stateMutability": "view",
      "type": "function"
    },
    {
      "inputs": [
        {
          "internalType": "address",
          "name": "to",
          "type": "address"
        },
        {
          "internalType": "uint256",
          "name": "value",
          "type": "uint256"
        }
      ],
      "name": "transfer",
      "outputs": [
        {
          "internalType": "bool",
          "name": "",
          "type": "bool"
        }
      ],
      "stateMutability": "nonpayable",
      "type": "function"
    },
    {
      "inputs": [
        {
          "internalType": "address",
          "name": "from",
          "type": "address"
        },
        {
          "internalType": "address",
          "name": "to",
          "type": "address"
        },
        {
          "internalType": "uint256",
          "name": "value",
          "type": "uint256"
        }
      ],
      "name": "transferFrom",
      "outputs": [
        {
          "internalType": "bool",
          "name": "",
          "type": "bool"
        }
      ],
      "stateMutability": "nonpayable",
      "type": "function"
    },
    {
      "inputs": [
        {
          "internalType": "address",
          "name": "newOwner",
          "type": "address"
        }
      ],
      "name": "transferOwnership",
      "outputs": [],
      "stateMutability": "nonpayable",
      "type": "function"
    },
    {
      "inputs": [
        {
          "internalType": "uint256",
          "name": "_amount",
          "type": "uint256"
        }
      ],
      "name": "unstakeTokens",
      "outputs": [],
      "stateMutability": "nonpayable",
      "type": "function"
    },
    {
      "inputs": [
        {
          "internalType": "uint256",
          "name": "_amount",
          "type": "uint256"
        }
      ],
      "name": "withdrawMatic",
      "outputs": [],
      "stateMutability": "nonpayable",
      "type": "function"
    },
    {
      "stateMutability": "payable",
      "type": "receive"
    }
  ],
  "bytecode": "0x610160604052678ac7230489e80000600b556032600d553480156200002357600080fd5b5060405162002dfe38038062002dfe833981016040819052620000469162000505565b6040518060400160405280600781526020016653616e6374756d60c81b81525080604051806040016040528060018152602001603160f81b815250336040518060400160405280600781526020016653616e6374756d60c81b8152506040518060400160405280600481526020016353414e4360e01b8152508160039081620000d09190620005dc565b506004620000df8282620005dc565b5050506001600160a01b0381166200011257604051631e4fbdf760e01b8152600060048201526024015b60405180910390fd5b6200011d81620002a8565b506200012b826007620002c6565b610120526200013c816008620002c6565b61014052815160208084019190912060e052815190820120610100524660a052620001ca60e05161010051604080517f8b73c3c69bb8fe3d512ecc4cf759cc79239f7b179b0ffacaa9a75d522b39400f60208201529081019290925260608201524660808201523060a082015260009060c00160405160208183030381529060405280519060200120905090565b60805250503060c052506001600160a01b0381166200022c5760405162461bcd60e51b815260206004820152601960248201527f496e76616c6964206c6971756964697479206164647265737300000000000000604482015260640162000109565b62000243816a108b2a2c28029094000000620002ff565b62000270306200026a6a0c685fa11e01ec6f0000006a295be96e64066972000000620006a8565b620002ff565b62000287336a0c685fa11e01ec6f000000620002ff565b50336000908152600e60205260409020805460ff191660011790556200073f565b600680546001600160a01b0319169055620002c3816200033d565b50565b6000602083511015620002e657620002de836200038f565b9050620002f9565b81620002f38482620005dc565b5060ff90505b92915050565b6001600160a01b0382166200032b5760405163ec442f0560e01b81526000600482015260240162000109565b6200033960008383620003d2565b5050565b600580546001600160a01b038381166001600160a01b0319831681179093556040519116919082907f8be0079c531659141344cd1fd0a4f28419497f9722a3daafe3b4186f6b6457e090600090a35050565b600080829050601f81511115620003bd578260405163305a27a960e01b8152600401620001099190620006ca565b8051620003ca826200071a565b179392505050565b6001600160a01b03831662000401578060026000828254620003f59190620006a8565b90915550620004759050565b6001600160a01b03831660009081526020819052604090205481811015620004565760405163391434e360e21b81526001600160a01b0385166004820152602481018290526044810183905260640162000109565b6001600160a01b03841660009081526020819052604090209082900390555b6001600160a01b0382166200049357600280548290039055620004b2565b6001600160a01b03821660009081526020819052604090208054820190555b816001600160a01b0316836001600160a01b03167fddf252ad1be2c89b69c2b068fc378daa952ba7f163c4a11628f55a4df523b3ef83604051620004f891815260200190565b60405180910390a3505050565b6000602082840312156200051857600080fd5b81516001600160a01b03811681146200053057600080fd5b9392505050565b634e487b7160e01b600052604160045260246000fd5b600181811c908216806200056257607f821691505b6020821081036200058357634e487b7160e01b600052602260045260246000fd5b50919050565b601f821115620005d757600081815260208120601f850160051c81016020861015620005b25750805b601f850160051c820191505b81811015620005d357828155600101620005be565b5050505b505050565b81516001600160401b03811115620005f857620005f862000537565b62000610816200060984546200054d565b8462000589565b602080601f8311600181146200064857600084156200062f5750858301515b600019600386901b1c1916600185901b178555620005d3565b600085815260208120601f198616915b82811015620006795788860151825594840194600190910190840162000658565b5085821015620006985787850151600019600388901b60f8161c191681555b5050505050600190811b01905550565b80820180821115620002f957634e487b7160e01b600052601160045260246000fd5b600060208083528351808285015260005b81811015620006f957858101830151858201604001528201620006db565b506000604082860101526040601f19601f8301168501019250505092915050565b80516020808301519190811015620005835760001960209190910360031b1b16919050565b60805160a05160c05160e0516101005161012051610140516126646200079a6000396000611ab601526000611a89015260006119b50152600061198d015260006118e8015260006119120152600061193c01526126646000f3fe6080604052600436106102975760003560e01c80637250e2241161015a578063c480512e116100c1578063e30c39781161007a578063e30c397814610932578063e8a379b214610950578063ed14d17e14610970578063f2fde38b14610978578063f59eb2dc14610998578063f8d7f790146103f257600080fd5b8063c480512e14610849578063c5df292b14610869578063d123273014610889578063d505accf146108b6578063dbd8c057146108d6578063dd62ed3e146108ec57600080fd5b806384b0196e1161011357806384b0196e146107325780638da5cb5b1461075a57806395d89b411461078c5780639e447fc6146107a1578063a9059cbb146107c1578063b6a602e3146107e157600080fd5b80637250e2241461067d5780637547c7a31461069d57806379ba5097146106bd57806379cc6790146106d25780637bfdd589146106f25780637ecebe001461071257600080fd5b806332cb6b0c116101fe57806357c1f9e2116101b757806357c1f9e2146105af57806359b49b92146105cf57806360217267146105e5578063608e4dd01461061257806370a0823114610632578063715018a61461066857600080fd5b806332cb6b0c146104fb5780633644e5151461051a578063423cf1691461052f57806342966c681461054e57806351932a861461057057806355097bf11461059057600080fd5b806319b2284a1161025057806319b2284a146104115780631b68f1421461044c57806323b872dd1461046257806329d79e571461048257806330d3dedf146104af578063313ce567146104df57600080fd5b806306fdde0314610334578063095ea7b31461035f57806318160ddd1461038f5780631892fb17146103ae5780631932526d146103db5780631940ca17146103f257600080fd5b3661032f57346000036102e35760405162461bcd60e51b815260206004820152600f60248201526e4d7573742073656e642076616c756560881b60448201526064015b60405180910390fd5b34600c60008282546102f5919061206e565b90915550506040513481527f57af161438f8fdc89d286da9e49368f4583497e141ba2de6efa3977569193f0b9060200160405180910390a1005b600080fd5b34801561034057600080fd5b506103496109ae565b60405161035691906120c7565b60405180910390f35b34801561036b57600080fd5b5061037f61037a3660046120fd565b610a40565b6040519015158152602001610356565b34801561039b57600080fd5b506002545b604051908152602001610356565b3480156103ba57600080fd5b506103a06103c9366004612127565b60106020526000908152604090205481565b3480156103e757600080fd5b506103a062278d0081565b3480156103fe57600080fd5b506103a06a0c685fa11e01ec6f00000081565b34801561041d57600080fd5b5061037f61042c3660046120fd565b6001600160a01b0391909116600090815260116020526040902054101590565b34801561045857600080fd5b506103a0600a5481565b34801561046e57600080fd5b5061037f61047d366004612142565b610a5a565b34801561048e57600080fd5b506103a061049d366004612127565b600f6020526000908152604090205481565b3480156104bb57600080fd5b5061037f6104ca366004612127565b600e6020526000908152604090205460ff1681565b3480156104eb57600080fd5b5060405160128152602001610356565b34801561050757600080fd5b506103a06a52b7d2dcc80cd2e400000081565b34801561052657600080fd5b506103a0610a7e565b34801561053b57600080fd5b506103a06a295be96e6406697200000081565b34801561055a57600080fd5b5061056e61056936600461217e565b610a8d565b005b34801561057c57600080fd5b5061056e61058b3660046121e3565b610a9a565b34801561059c57600080fd5b506103a06a108b2a2c2802909400000081565b3480156105bb57600080fd5b5061056e6105ca366004612127565b610c3c565b3480156105db57600080fd5b506103a0600b5481565b3480156105f157600080fd5b506103a0610600366004612127565b60116020526000908152604090205481565b34801561061e57600080fd5b5061056e61062d36600461217e565b610ce3565b34801561063e57600080fd5b506103a061064d366004612127565b6001600160a01b031660009081526020819052604090205490565b34801561067457600080fd5b5061056e610e50565b34801561068957600080fd5b5061056e610698366004612127565b610e64565b3480156106a957600080fd5b5061056e6106b836600461217e565b610f0e565b3480156106c957600080fd5b5061056e611018565b3480156106de57600080fd5b5061056e6106ed3660046120fd565b611059565b3480156106fe57600080fd5b5061056e61070d36600461217e565b611072565b34801561071e57600080fd5b506103a061072d366004612127565b611107565b34801561073e57600080fd5b50610747611125565b604051610356979695949392919061227d565b34801561076657600080fd5b506005546001600160a01b03165b6040516001600160a01b039091168152602001610356565b34801561079857600080fd5b5061034961116b565b3480156107ad57600080fd5b5061056e6107bc36600461217e565b61117a565b3480156107cd57600080fd5b5061037f6107dc3660046120fd565b6111b7565b3480156107ed57600080fd5b5061082e6107fc366004612127565b6001600160a01b03166000908152600f6020908152604080832054601083528184205460119093529220549192909190565b60408051938452602084019290925290820152606001610356565b34801561085557600080fd5b5061056e61086436600461217e565b6111c5565b34801561087557600080fd5b506103a0610884366004612329565b6111d6565b34801561089557600080fd5b506103a06108a4366004612127565b60126020526000908152604090205481565b3480156108c257600080fd5b5061056e6108d13660046123f4565b611435565b3480156108e257600080fd5b506103a0600c5481565b3480156108f857600080fd5b506103a0610907366004612467565b6001600160a01b03918216600090815260016020908152604080832093909416825291909152205490565b34801561093e57600080fd5b506006546001600160a01b0316610774565b34801561095c57600080fd5b5061056e61096b36600461217e565b61156f565b61056e6116b3565b34801561098457600080fd5b5061056e610993366004612127565b61177a565b3480156109a457600080fd5b506103a0600d5481565b6060600380546109bd9061249a565b80601f01602080910402602001604051908101604052809291908181526020018280546109e99061249a565b8015610a365780601f10610a0b57610100808354040283529160200191610a36565b820191906000526020600020905b815481529060010190602001808311610a1957829003601f168201915b5050505050905090565b600033610a4e8185856117eb565b60019150505b92915050565b600033610a688582856117fd565b610a7385858561187c565b506001949350505050565b6000610a886118db565b905090565b610a973382611a06565b50565b336000908152600e602052604090205460ff1680610ac257506005546001600160a01b031633145b610aff5760405162461bcd60e51b815260206004820152600e60248201526d139bdd08185d5d1a1bdc9a5e995960921b60448201526064016102da565b8483148015610b0d57508281145b610b515760405162461bcd60e51b8152602060048201526015602482015274082e4e4c2f240d8cadccee8d040dad2e6dac2e8c6d605b1b60448201526064016102da565b8460005b81811015610c32573063c5df292b898984818110610b7557610b756124d4565b9050602002016020810190610b8a9190612127565b888885818110610b9c57610b9c6124d4565b90506020020135878786818110610bb557610bb56124d4565b9050602002810190610bc791906124ea565b6040518563ffffffff1660e01b8152600401610be69493929190612531565b6020604051808303816000875af1158015610c05573d6000803e3d6000fd5b505050506040513d601f19601f82011682018060405250810190610c299190612579565b50600101610b55565b5050505050505050565b610c44611a3c565b6001600160a01b038116610c9a5760405162461bcd60e51b815260206004820152601b60248201527f496e76616c6964206469737472696275746f722061646472657373000000000060448201526064016102da565b6001600160a01b0381166000818152600e6020526040808220805460ff19169055517f126174f6cf49c81cdb4a9214c6b8f037bef55b4ec31e4fc776cea2a1c8a88d599190a250565b80600003610d265760405162461bcd60e51b815260206004820152601060248201526f043616e6e6f7420756e7374616b6520360841b60448201526064016102da565b33600090815260116020526040902054811115610d855760405162461bcd60e51b815260206004820152601b60248201527f496e73756666696369656e74207374616b65642062616c616e6365000000000060448201526064016102da565b33600090815260126020526040902054610da39062278d009061206e565b421015610de75760405162461bcd60e51b815260206004820152601260248201527114dd185ad9481cdd1a5b1b081b1bd8dad95960721b60448201526064016102da565b3360009081526011602052604081208054839290610e06908490612592565b90915550610e17905030338361187c565b60405181815233907f9845e367b683334e5c0b12d7b81721ac518e649376fa65e3d68324e8f34f2679906020015b60405180910390a250565b610e58611a3c565b610e626000611a69565b565b610e6c611a3c565b6001600160a01b038116610ec25760405162461bcd60e51b815260206004820152601b60248201527f496e76616c6964206469737472696275746f722061646472657373000000000060448201526064016102da565b6001600160a01b0381166000818152600e6020526040808220805460ff19166001179055517fddbf200aa634dc3fb81cfd68583dd1040d1c751d335e1d86b631bde3e977fea89190a250565b80600003610f4f5760405162461bcd60e51b815260206004820152600e60248201526d043616e6e6f74207374616b6520360941b60448201526064016102da565b33600090815260208190526040902054811115610fa55760405162461bcd60e51b8152602060048201526014602482015273496e73756666696369656e742062616c616e636560601b60448201526064016102da565b610fb033308361187c565b3360009081526011602052604081208054839290610fcf90849061206e565b90915550503360008181526012602052604090819020429055517fb539ca1e5c8d398ddf1c41c30166f33404941683be4683319b57669a93dad4ef90610e459084815260200190565b60065433906001600160a01b031681146110505760405163118cdaa760e01b81526001600160a01b03821660048201526024016102da565b610a9781611a69565b6110648233836117fd565b61106e8282611a06565b5050565b61107a611a3c565b60648111156110cb5760405162461bcd60e51b815260206004820152601c60248201527f50657263656e746167652063616e6e6f7420657863656564203130300000000060448201526064016102da565b600d8190556040518181527ff9e7feb05cd52f311ac51df009ec0de29bcbfc85247e6e8392f94b86833f3973906020015b60405180910390a150565b6001600160a01b038116600090815260096020526040812054610a54565b600060608060008060006060611139611a82565b611141611aaf565b60408051600080825260208201909252600f60f81b9b939a50919850469750309650945092509050565b6060600480546109bd9061249a565b611182611a3c565b600b8190556040518181527f41d466ebd06fb97e7786086ac8b69b7eb7da798592036251291d34e9791cde01906020016110fc565b600033610a4e81858561187c565b6111cd611a3c565b610a9781611adc565b336000908152600e602052604081205460ff16806111fe57506005546001600160a01b031633145b61123b5760405162461bcd60e51b815260206004820152600e60248201526d139bdd08185d5d1a1bdc9a5e995960921b60448201526064016102da565b6001600160a01b0384166112915760405162461bcd60e51b815260206004820152601a60248201527f496e76616c69642072657365617263686572206164647265737300000000000060448201526064016102da565b60648311156112d85760405162461bcd60e51b8152602060048201526013602482015272053636f7265206d75737420626520302d31303606c1b60448201526064016102da565b600b543060009081526020819052604090205410156113395760405162461bcd60e51b815260206004820152601860248201527f496e73756666696369656e742072657761726420706f6f6c000000000000000060448201526064016102da565b606483600b5461134991906125a5565b61135391906125bc565b90508060000361136f57600a600b5461136c91906125bc565b90505b61137a30858361187c565b6001600160a01b0384166000908152600f6020526040812080549161139e836125de565b90915550506001600160a01b038416600090815260106020526040812080548392906113cb90849061206e565b9250508190555080600a60008282546113e4919061206e565b92505081905550836001600160a01b03167f303472e5ccc1e5290c84392a378961f685c353f36f30fd51ddb58a524aa20da182846040516114269291906125f7565b60405180910390a29392505050565b834211156114595760405163313c898160e11b8152600481018590526024016102da565b60007f6e71edae12b1b97f4d1f60370fef10105fa2faae0126114a169c64845d6126c98888886114a68c6001600160a01b0316600090815260096020526040902080546001810190915590565b6040805160208101969096526001600160a01b0394851690860152929091166060840152608083015260a082015260c0810186905260e001604051602081830303815290604052805190602001209050600061150182611b12565b9050600061151182878787611b3f565b9050896001600160a01b0316816001600160a01b031614611558576040516325c0072360e11b81526001600160a01b0380831660048301528b1660248201526044016102da565b6115638a8a8a6117eb565b50505050505050505050565b611577611a3c565b806000036115bb5760405162461bcd60e51b8152602060048201526011602482015270043616e6e6f74207769746864726177203607c1b60448201526064016102da565b60006115cf6005546001600160a01b031690565b6001600160a01b03168260405160006040518083038185875af1925050503d8060008114611619576040519150601f19603f3d011682016040523d82523d6000602084013e61161e565b606091505b50509050806116615760405162461bcd60e51b815260206004820152600f60248201526e151c985b9cd9995c8819985a5b1959608a1b60448201526064016102da565b6005546001600160a01b03166001600160a01b03167f4e5abb9fe9c3cb072c5f05c90db4208588b64cedbfa36e6643e38f40cd82104c836040516116a791815260200190565b60405180910390a25050565b6116bb611a3c565b346000036116ff5760405162461bcd60e51b81526020600482015260116024820152704d7573742073656e6420726576656e756560781b60448201526064016102da565b34600c6000828254611711919061206e565b90915550506040513481527f57af161438f8fdc89d286da9e49368f4583497e141ba2de6efa3977569193f0b9060200160405180910390a1670de0b6b3a76400003410610e6257610e626064600d543461176b91906125a5565b61177591906125bc565b611adc565b611782611a3c565b600680546001600160a01b0383166001600160a01b031990911681179091556117b36005546001600160a01b031690565b6001600160a01b03167f38d16b8cac22d99fc7c124b9cd0de2d3fa1faef420bfe791d8c362d765e2270060405160405180910390a350565b6117f88383836001611b6d565b505050565b6001600160a01b03838116600090815260016020908152604080832093861683529290522054600019811015611876578181101561186757604051637dc7a0d960e11b81526001600160a01b038416600482015260248101829052604481018390526064016102da565b61187684848484036000611b6d565b50505050565b6001600160a01b0383166118a657604051634b637e8f60e11b8152600060048201526024016102da565b6001600160a01b0382166118d05760405163ec442f0560e01b8152600060048201526024016102da565b6117f8838383611c42565b6000306001600160a01b037f00000000000000000000000000000000000000000000000000000000000000001614801561193457507f000000000000000000000000000000000000000000000000000000000000000046145b1561195e57507f000000000000000000000000000000000000000000000000000000000000000090565b610a88604080517f8b73c3c69bb8fe3d512ecc4cf759cc79239f7b179b0ffacaa9a75d522b39400f60208201527f0000000000000000000000000000000000000000000000000000000000000000918101919091527f000000000000000000000000000000000000000000000000000000000000000060608201524660808201523060a082015260009060c00160405160208183030381529060405280519060200120905090565b6001600160a01b038216611a3057604051634b637e8f60e11b8152600060048201526024016102da565b61106e82600083611c42565b6005546001600160a01b03163314610e625760405163118cdaa760e01b81523360048201526024016102da565b600680546001600160a01b0319169055610a9781611d6c565b6060610a887f00000000000000000000000000000000000000000000000000000000000000006007611dbe565b6060610a887f00000000000000000000000000000000000000000000000000000000000000006008611dbe565b60408051828152600060208201527ff18f497cc697d78dfd4c2bfcfa48aa4c6a5f53409da684ba5fdeef20d911473e91016110fc565b6000610a54611b1f6118db565b8360405161190160f01b8152600281019290925260228201526042902090565b600080600080611b5188888888611e69565b925092509250611b618282611f38565b50909695505050505050565b6001600160a01b038416611b975760405163e602df0560e01b8152600060048201526024016102da565b6001600160a01b038316611bc157604051634a1406b160e11b8152600060048201526024016102da565b6001600160a01b038085166000908152600160209081526040808320938716835292905220829055801561187657826001600160a01b0316846001600160a01b03167f8c5be1e5ebec7d5bd14f71427d1e84f3dd0314c0f7b2291e5b200ac8c7c3b92584604051611c3491815260200190565b60405180910390a350505050565b6001600160a01b038316611c6d578060026000828254611c62919061206e565b90915550611cdf9050565b6001600160a01b03831660009081526020819052604090205481811015611cc05760405163391434e360e21b81526001600160a01b038516600482015260248101829052604481018390526064016102da565b6001600160a01b03841660009081526020819052604090209082900390555b6001600160a01b038216611cfb57600280548290039055611d1a565b6001600160a01b03821660009081526020819052604090208054820190555b816001600160a01b0316836001600160a01b03167fddf252ad1be2c89b69c2b068fc378daa952ba7f163c4a11628f55a4df523b3ef83604051611d5f91815260200190565b60405180910390a3505050565b600580546001600160a01b038381166001600160a01b0319831681179093556040519116919082907f8be0079c531659141344cd1fd0a4f28419497f9722a3daafe3b4186f6b6457e090600090a35050565b606060ff8314611dd857611dd183611ff1565b9050610a54565b818054611de49061249a565b80601f0160208091040260200160405190810160405280929190818152602001828054611e109061249a565b8015611e5d5780601f10611e3257610100808354040283529160200191611e5d565b820191906000526020600020905b815481529060010190602001808311611e4057829003601f168201915b50505050509050610a54565b600080807f7fffffffffffffffffffffffffffffff5d576e7357a4501ddfe92f46681b20a0841115611ea45750600091506003905082611f2e565b604080516000808252602082018084528a905260ff891692820192909252606081018790526080810186905260019060a0016020604051602081039080840390855afa158015611ef8573d6000803e3d6000fd5b5050604051601f1901519150506001600160a01b038116611f2457506000925060019150829050611f2e565b9250600091508190505b9450945094915050565b6000826003811115611f4c57611f4c612618565b03611f55575050565b6001826003811115611f6957611f69612618565b03611f875760405163f645eedf60e01b815260040160405180910390fd5b6002826003811115611f9b57611f9b612618565b03611fbc5760405163fce698f760e01b8152600481018290526024016102da565b6003826003811115611fd057611fd0612618565b0361106e576040516335e2f38360e21b8152600481018290526024016102da565b60606000611ffe83612030565b604080516020808252818301909252919250600091906020820181803683375050509182525060208101929092525090565b600060ff8216601f811115610a5457604051632cd44ac360e21b815260040160405180910390fd5b634e487b7160e01b600052601160045260246000fd5b80820180821115610a5457610a54612058565b6000815180845260005b818110156120a75760208185018101518683018201520161208b565b506000602082860101526020601f19601f83011685010191505092915050565b6020815260006120da6020830184612081565b9392505050565b80356001600160a01b03811681146120f857600080fd5b919050565b6000806040838503121561211057600080fd5b612119836120e1565b946020939093013593505050565b60006020828403121561213957600080fd5b6120da826120e1565b60008060006060848603121561215757600080fd5b612160846120e1565b925061216e602085016120e1565b9150604084013590509250925092565b60006020828403121561219057600080fd5b5035919050565b60008083601f8401126121a957600080fd5b50813567ffffffffffffffff8111156121c157600080fd5b6020830191508360208260051b85010111156121dc57600080fd5b9250929050565b600080600080600080606087890312156121fc57600080fd5b863567ffffffffffffffff8082111561221457600080fd5b6122208a838b01612197565b9098509650602089013591508082111561223957600080fd5b6122458a838b01612197565b9096509450604089013591508082111561225e57600080fd5b5061226b89828a01612197565b979a9699509497509295939492505050565b60ff60f81b881681526000602060e08184015261229d60e084018a612081565b83810360408501526122af818a612081565b606085018990526001600160a01b038816608086015260a0850187905284810360c0860152855180825283870192509083019060005b81811015612301578351835292840192918401916001016122e5565b50909c9b505050505050505050505050565b634e487b7160e01b600052604160045260246000fd5b60008060006060848603121561233e57600080fd5b612347846120e1565b925060208401359150604084013567ffffffffffffffff8082111561236b57600080fd5b818601915086601f83011261237f57600080fd5b81358181111561239157612391612313565b604051601f8201601f19908116603f011681019083821181831017156123b9576123b9612313565b816040528281528960208487010111156123d257600080fd5b8260208601602083013760006020848301015280955050505050509250925092565b600080600080600080600060e0888a03121561240f57600080fd5b612418886120e1565b9650612426602089016120e1565b95506040880135945060608801359350608088013560ff8116811461244a57600080fd5b9699959850939692959460a0840135945060c09093013592915050565b6000806040838503121561247a57600080fd5b612483836120e1565b9150612491602084016120e1565b90509250929050565b600181811c908216806124ae57607f821691505b6020821081036124ce57634e487b7160e01b600052602260045260246000fd5b50919050565b634e487b7160e01b600052603260045260246000fd5b6000808335601e1984360301811261250157600080fd5b83018035915067ffffffffffffffff82111561251c57600080fd5b6020019150368190038213156121dc57600080fd5b6001600160a01b0385168152602081018490526060604082018190528101829052818360808301376000818301608090810191909152601f909201601f191601019392505050565b60006020828403121561258b57600080fd5b5051919050565b81810381811115610a5457610a54612058565b8082028115828204841417610a5457610a54612058565b6000826125d957634e487b7160e01b600052601260045260246000fd5b500490565b6000600182016125f0576125f0612058565b5060010190565b8281526040602082015260006126106040830184612081565b949350505050565b634e487b7160e01b600052602160045260246000fdfea264697066735822122036b6f4755b83b40863d18429c8d2b0975c5cf1a7cf122d0d2001ac6c0919a03464736f6c63430008140033",
  "linkReferences": {},
  "deployedLinkReferences": {}
}