{
  "_format": "hh-sol-artifact-1",
  "contractName": "SanctuaryNFT",
  "sourceName": "contracts/SanctuaryNFT.sol",
  "abi": [
    {
      "inputs": [
        {
          "internalType": "address",
          "name": "initialOwner",
          "type": "address"
        }
      ],
      "stateMutability": "nonpayable",
      "type": "constructor"
    },
    {
      "inputs": [
        {
          "internalType": "address",
          "name": "sender",
          "type": "address"
        },
        {
          "internalType": "uint256",
          "name": "tokenId",
          "type": "uint256"
        },
        {
          "internalType": "address",
          "name": "owner",
          "type": "address"
        }
      ],
      "name": "ERC721IncorrectOwner",
      "type": "error"
    },
    {
      "inputs": [
        {
          "internalType": "address",
          "name": "operator",
          "type": "address"
        },
        {
          "internalType": "uint256",
          "name": "tokenId",
          "type": "uint256"
        }
      ],
      "name": "ERC721InsufficientApproval",
      "type": "error"
    },
    {
      "inputs": [
        {
          "internalType": "address",
          "name": "approver",
          "type": "address"
        }
      ],
      "name": "ERC721InvalidApprover",
      "type": "error"
    },
    {
      "inputs": [
        {
          "internalType": "address",
          "name": "operator",
          "type": "address"
        }
      ],
      "name": "ERC721InvalidOperator",
      "type": "error"
    },
    {
      "inputs": [
        {
          "internalType": "address",
          "name": "owner",
          "type": "address"
        }
      ],
      "name": "ERC721InvalidOwner",
      "type": "error"
    },
    {
      "inputs": [
        {
          "internalType": "address",
          "name": "receiver",
          "type": "address"
        }
      ],
      "name": "ERC721InvalidReceiver",
      "type": "error"
    },
    {
      "inputs": [
        {
          "internalType": "address",
          "name": "sender",
          "type": "address"
        }
      ],
      "name": "ERC721InvalidSender",
      "type": "error"
    },
    {
      "inputs": [
        {
          "internalType": "uint256",
          "name": "tokenId",
          "type": "uint256"
        }
      ],
      "name": "ERC721NonexistentToken",
      "type": "error"
    },
    {
      "inputs": [
        {
          "internalType": "address",
          "name": "owner",
          "type": "address"
        }
      ],
      "name": "OwnableInvalidOwner",
      "type": "error"
    },
    {
      "inputs": [
        {
          "internalType": "address",
          "name": "account",
          "type": "address"
        }
      ],
      "name": "OwnableUnauthorizedAccount",
      "type": "error"
    },
    {
      "anonymous": false,
      "inputs": [
        {
          "indexed": true,
          "internalType": "address",
          "name": "owner",
          "type": "address"
        },
        {
          "indexed": true,
          "internalType": "address",
          "name": "approved",
          "type": "address"
        },
        {
          "indexed": true,
          "internalType": "uint256",
          "name": "tokenId",
          "type": "uint256"
        }
      ],
      "name": "Approval",
      "type": "event"
    },
    {
      "anonymous": false,
      "inputs": [
        {
          "indexed": true,
          "internalType": "address",
          "name": "owner",
          "type": "address"
        },
        {
          "indexed": true,
          "internalType": "address",
          "name": "operator",
          "type": "address"
        },
        {
          "indexed": false,
          "internalType": "bool",
          "name": "approved",
          "type": "bool"
        }
      ],
      "name": "ApprovalForAll",
      "type": "event"
    },
    {
      "anonymous": false,
      "inputs": [
        {
          "indexed": false,
          "internalType": "uint256",
          "name": "_fromTokenId",
          "type": "uint256"
        },
        {
          "indexed": false,
          "internalType": "uint256",
          "name": "_toTokenId",
          "type": "uint256"
        }
      ],
      "name": "BatchMetadataUpdate",
      "type": "event"
    },
    {
      "anonymous": false,
      "inputs": [
        {
          "indexed": false,
          "internalType": "uint256",
          "name": "_tokenId",
          "type": "uint256"
        }
      ],
      "name": "MetadataUpdate",
      "type": "event"
    },
    {
      "anonymous": false,
      "inputs": [
        {
          "indexed": true,
          "internalType": "address",
          "name": "minter",
          "type": "address"
        }
      ],
      "name": "MinterAdded",
      "type": "event"
    },
    {
      "anonymous": false,
      "inputs": [
        {
          "indexed": true,
          "internalType": "address",
          "name": "minter",
          "type": "address"
        }
      ],
      "name": "MinterRemoved",
      "type": "event"
    },
    {
      "anonymous": false,
      "inputs": [
        {
          "indexed": true,
          "internalType": "address",
          "name": "previousOwner",
          "type": "address"
        },
        {
          "indexed": true,
          "internalType": "address",
          "name": "newOwner",
          "type": "address"
        }
      ],
      "name": "OwnershipTransferred",
      "type": "event"
    },
    {
      "anonymous": false,
      "inputs": [
        {
          "indexed": true,
          "internalType": "address",
          "name": "from",
          "type": "address"
        },
        {
          "indexed": true,
          "internalType": "address",
          "name": "to",
          "type": "address"
        },
        {
          "indexed": true,
          "internalType": "uint256",
          "name": "tokenId",
          "type": "uint256"
        }
      ],
      "name": "Transfer",
      "type": "event"
    },
    {
      "inputs": [
        {
          "internalType": "address",
          "name": "_minter",
          "type": "address"
        }
      ],
      "name": "addMinter",
      "outputs": [],
      "stateMutability": "nonpayable",
      "type": "function"
    },
    {
      "inputs": [
        {
          "internalType": "address",
          "name": "to",
          "type": "address"
        },
        {
          "internalType": "uint256",
          "name": "tokenId",
          "type": "uint256"
        }
      ],
      "name": "approve",
      "outputs": [],
      "stateMutability": "nonpayable",
      "type": "function"
    },
    {
      "inputs": [
        {
          "internalType": "address",
          "name": "owner",
          "type": "address"
        }
      ],
      "name": "balanceOf",
      "outputs": [
        {
          "internalType": "uint256",
          "name": "",
          "type": "uint256"
        }
      ],
      "stateMutability": "view",
      "type": "function"
    },
    {
      "inputs": [
        {
          "internalType": "uint256",
          "name": "tokenId",
          "type": "uint256"
        }
      ],
      "name": "getApproved",
      "outputs": [
        {
          "internalType": "address",
          "name": "",
          "type": "address"
        }
      ],
      "stateMutability": "view",
      "type": "function"
    },
    {
      "inputs": [
        {
          "internalType": "address",
          "name": "owner",
          "type": "address"
        },
        {
          "internalType": "address",
          "name": "operator",
          "type": "address"
        }
      ],
      "name": "isApprovedForAll",
      "outputs": [
        {
          "internalType": "bool",
          "name": "",
          "type": "bool"
        }
      ],
      "stateMutability": "view",
      "type": "function"
    },
    {
      "inputs": [
        {
          "internalType": "address",
          "name": "",
          "type": "address"
        }
      ],
      "name": "isMinter",
      "outputs": [
        {
          "internalType": "bool",
          "name": "",
          "type": "bool"
        }
      ],
      "stateMutability": "view",
      "type": "function"
    },
    {
      "inputs": [],
      "name": "name",
      "outputs": [
        {
          "internalType": "string",
          "name": "",
          "type": "string"
        }
      ],
      "stateMutability": "view",
      "type": "function"
    },
    {
      "inputs": [],
      "name": "owner",
      "outputs": [
        {
          "internalType": "address",
          "name": "",
          "type": "address"
        }
      ],
      "stateMutability": "view",
      "type": "function"
    },
    {
      "inputs": [
        {
          "internalType": "uint256",
          "name": "tokenId",
          "type": "uint256"
        }
      ],
      "name": "ownerOf",
      "outputs": [
        {
          "internalType": "address",
          "name": "",
          "type": "address"
        }
      ],
      "stateMutability": "view",
      "type": "function"
    },
    {
      "inputs": [
        {
          "internalType": "address",
          "name": "_minter",
          "type": "address"
        }
      ],
      "name": "removeMinter",
      "outputs": [],
      "stateMutability": "nonpayable",
      "type": "function"
    },
    {
      "inputs": [],
      "name": "renounceOwnership",
      "outputs": [],
      "stateMutability": "nonpayable",
      "type": "function"
    },
    {
      "inputs": [
        {
          "internalType": "address",
          "name": "to",
          "type": "address"
        },
        {
          "internalType": "string",
          "name": "uri",
          "type": "string"
        }
      ],
      "name": "safeMint",
      "outputs": [],
      "stateMutability": "nonpayable",
      "type": "function"
    },
    {
      "inputs": [
        {
          "internalType": "address",
          "name": "from",
          "type": "address"
        },
        {
          "internalType": "address",
          "name": "to",
          "type": "address"
        },
        {
          "internalType": "uint256",
          "name": "tokenId",
          "type": "uint256"
        }
      ],
      "name": "safeTransferFrom",
      "outputs": [],
      "stateMutability": "nonpayable",
      "type": "function"
    },
    {
      "inputs": [
        {
          "internalType": "address",
          "name": "from",
          "type": "address"
        },
        {
          "internalType": "address",
          "name": "to",
          "type": "address"
        },
        {
          "internalType": "uint256",
          "name": "tokenId",
          "type": "uint256"
        },
        {
          "internalType": "bytes",
          "name": "data",
          "type": "bytes"
        }
      ],
      "name": "safeTransferFrom",
      "outputs": [],
      "stateMutability": "nonpayable",
      "type": "function"
    },
    {
      "inputs": [
        {
          "internalType": "address",
          "name": "operator",
          "type": "address"
        },
        {
          "internalType": "bool",
          "name": "approved",
          "type": "bool"
        }
      ],
      "name": "setApprovalForAll",
      "outputs": [],
      "stateMutability": "nonpayable",
      "type": "function"
    },
    {
      "inputs": [
        {
          "internalType": "bytes4",
          "name": "interfaceId",
          "type": "bytes4"
        }
      ],
      "name": "supportsInterface",
      "outputs": [
        {
          "internalType": "bool",
          "name": "",
          "type": "bool"
        }
      ],
      "stateMutability": "view",
      "type": "function"
    },
    {
      "inputs": [],
      "name": "symbol",
      "outputs": [
        {
          "internalType": "string",
          "name": "",
          "type": "string"
        }
      ],
      "stateMutability": "view",
      "type": "function"
    },
    {
      "inputs": [
        {
          "internalType": "uint256",
          "name": "tokenId",
          "type": "uint256"
        }
      ],
      "name": "tokenURI",
      "outputs": [
        {
          "internalType": "string",
          "name": "",
          "type": "string"
        }
      ],
      "stateMutability": "view",
      "type": "function"
    },
    {
      "inputs": [
        {
          "internalType": "address",
          "name": "from",
          "type": "address"
        },
        {
          "internalType": "address",
          "name": "to",
          "type": "address"
        },
        {
          "internalType": "uint256",
          "name": "tokenId",
          "type": "uint256"
        }
      ],
      "name": "transferFrom",
      "outputs": [],
      "stateMutability": "nonpayable",
      "type": "function"
    },
    {
      "inputs": [
        {
          "internalType": "address",
          "name": "newOwner",
          "type": "address"
        }
      ],
      "name": "transferOwnership",
      "outputs": [],
      "stateMutability": "nonpayable",
      "type": "function"
    }
  ],
  "bytecode": "0x60806040523480156200001157600080fd5b50604051620018b3380380620018b3833981016040819052620000349162000161565b806040518060400160405280601581526020017f53616e63747561727920566f696365204d6f64656c00000000000000000000008152506040518060400160405280600581526020016429a0a721ab60d91b81525081600090816200009a919062000238565b506001620000a9828262000238565b5050506001600160a01b038116620000db57604051631e4fbdf760e01b81526000600482015260240160405180910390fd5b620000e6816200010f565b506001600160a01b03166000908152600960205260409020805460ff1916600117905562000304565b600780546001600160a01b038381166001600160a01b0319831681179093556040519116919082907f8be0079c531659141344cd1fd0a4f28419497f9722a3daafe3b4186f6b6457e090600090a35050565b6000602082840312156200017457600080fd5b81516001600160a01b03811681146200018c57600080fd5b9392505050565b634e487b7160e01b600052604160045260246000fd5b600181811c90821680620001be57607f821691505b602082108103620001df57634e487b7160e01b600052602260045260246000fd5b50919050565b601f8211156200023357600081815260208120601f850160051c810160208610156200020e5750805b601f850160051c820191505b818110156200022f578281556001016200021a565b5050505b505050565b81516001600160401b0381111562000254576200025462000193565b6200026c81620002658454620001a9565b84620001e5565b602080601f831160018114620002a457600084156200028b5750858301515b600019600386901b1c1916600185901b1785556200022f565b600085815260208120601f198616915b82811015620002d557888601518255948401946001909101908401620002b4565b5085821015620002f45787850151600019600388901b60f8161c191681555b5050505050600190811b01905550565b61159f80620003146000396000f3fe608060405234801561001057600080fd5b506004361061012c5760003560e01c80638da5cb5b116100ad578063b88d4fde11610071578063b88d4fde14610285578063c87b56dd14610298578063d204c45e146102ab578063e985e9c5146102be578063f2fde38b146102d157600080fd5b80638da5cb5b1461022357806395d89b4114610234578063983b2d561461023c578063a22cb4651461024f578063aa271e1a1461026257600080fd5b80633092afd5116100f45780633092afd5146101c157806342842e0e146101d45780636352211e146101e757806370a08231146101fa578063715018a61461021b57600080fd5b806301ffc9a71461013157806306fdde0314610159578063081812fc1461016e578063095ea7b31461019957806323b872dd146101ae575b600080fd5b61014461013f36600461106a565b6102e4565b60405190151581526020015b60405180910390f35b6101616102f5565b60405161015091906110d7565b61018161017c3660046110ea565b610387565b6040516001600160a01b039091168152602001610150565b6101ac6101a736600461111f565b6103b0565b005b6101ac6101bc366004611149565b6103bf565b6101ac6101cf366004611185565b61044f565b6101ac6101e2366004611149565b6104a0565b6101816101f53660046110ea565b6104c0565b61020d610208366004611185565b6104cb565b604051908152602001610150565b6101ac610513565b6007546001600160a01b0316610181565b610161610527565b6101ac61024a366004611185565b610536565b6101ac61025d3660046111a0565b61058a565b610144610270366004611185565b60096020526000908152604090205460ff1681565b6101ac610293366004611268565b610595565b6101616102a63660046110ea565b6105ad565b6101ac6102b93660046112e4565b6105b8565b6101446102cc366004611346565b610646565b6101ac6102df366004611185565b610674565b60006102ef826106b2565b92915050565b60606000805461030490611379565b80601f016020809104026020016040519081016040528092919081815260200182805461033090611379565b801561037d5780601f106103525761010080835404028352916020019161037d565b820191906000526020600020905b81548152906001019060200180831161036057829003601f168201915b5050505050905090565b6000610392826106d7565b506000828152600460205260409020546001600160a01b03166102ef565b6103bb828233610710565b5050565b6001600160a01b0382166103ee57604051633250574960e11b8152600060048201526024015b60405180910390fd5b60006103fb83833361071d565b9050836001600160a01b0316816001600160a01b031614610449576040516364283d7b60e01b81526001600160a01b03808616600483015260248201849052821660448201526064016103e5565b50505050565b610457610816565b6001600160a01b038116600081815260096020526040808220805460ff19169055517fe94479a9f7e1952cc78f2d6baab678adc1b772d936c6583def489e524cb666929190a250565b6104bb83838360405180602001604052806000815250610595565b505050565b60006102ef826106d7565b60006001600160a01b0382166104f7576040516322718ad960e21b8152600060048201526024016103e5565b506001600160a01b031660009081526003602052604090205490565b61051b610816565b6105256000610843565b565b60606001805461030490611379565b61053e610816565b6001600160a01b038116600081815260096020526040808220805460ff19166001179055517f6ae172837ea30b801fbfcdd4108aa1d5bf8ff775444fd70256b44e6bf3dfc3f69190a250565b6103bb338383610895565b6105a08484846103bf565b6104493385858585610934565b60606102ef82610a5f565b3360009081526009602052604090205460ff16806105e057506007546001600160a01b031633145b61061b5760405162461bcd60e51b815260206004820152600c60248201526b2737ba10309036b4b73a32b960a11b60448201526064016103e5565b600880546000918261062c836113b3565b91905055905061063c8382610b70565b6104bb8183610b8a565b6001600160a01b03918216600090815260056020908152604080832093909416825291909152205460ff1690565b61067c610816565b6001600160a01b0381166106a657604051631e4fbdf760e01b8152600060048201526024016103e5565b6106af81610843565b50565b60006001600160e01b03198216632483248360e11b14806102ef57506102ef82610bda565b6000818152600260205260408120546001600160a01b0316806102ef57604051637e27328960e01b8152600481018490526024016103e5565b6104bb8383836001610c2a565b6000828152600260205260408120546001600160a01b039081169083161561074a5761074a818486610d30565b6001600160a01b0381161561078857610767600085600080610c2a565b6001600160a01b038116600090815260036020526040902080546000190190555b6001600160a01b038516156107b7576001600160a01b0385166000908152600360205260409020805460010190555b60008481526002602052604080822080546001600160a01b0319166001600160a01b0389811691821790925591518793918516917fddf252ad1be2c89b69c2b068fc378daa952ba7f163c4a11628f55a4df523b3ef91a4949350505050565b6007546001600160a01b031633146105255760405163118cdaa760e01b81523360048201526024016103e5565b600780546001600160a01b038381166001600160a01b0319831681179093556040519116919082907f8be0079c531659141344cd1fd0a4f28419497f9722a3daafe3b4186f6b6457e090600090a35050565b6001600160a01b0382166108c757604051630b61174360e31b81526001600160a01b03831660048201526024016103e5565b6001600160a01b03838116600081815260056020908152604080832094871680845294825291829020805460ff191686151590811790915591519182527f17307eab39ab6107e8899845ad3d59bd9653f200f220920489ca2b5937696c31910160405180910390a3505050565b6001600160a01b0383163b15610a5857604051630a85bd0160e11b81526001600160a01b0384169063150b7a02906109769088908890879087906004016113da565b6020604051808303816000875af19250505080156109b1575060408051601f3d908101601f191682019092526109ae91810190611417565b60015b610a1a573d8080156109df576040519150601f19603f3d011682016040523d82523d6000602084013e6109e4565b606091505b508051600003610a1257604051633250574960e11b81526001600160a01b03851660048201526024016103e5565b805160208201fd5b6001600160e01b03198116630a85bd0160e11b14610a5657604051633250574960e11b81526001600160a01b03851660048201526024016103e5565b505b5050505050565b6060610a6a826106d7565b5060008281526006602052604081208054610a8490611379565b80601f0160208091040260200160405190810160405280929190818152602001828054610ab090611379565b8015610afd5780601f10610ad257610100808354040283529160200191610afd565b820191906000526020600020905b815481529060010190602001808311610ae057829003601f168201915b505050505090506000610b1b60408051602081019091526000815290565b90508051600003610b2d575092915050565b815115610b5f578082604051602001610b47929190611434565b60405160208183030381529060405292505050919050565b610b6884610d94565b949350505050565b6103bb828260405180602001604052806000815250610e09565b6000828152600660205260409020610ba282826114a9565b506040518281527ff8e1a15aba9398e019f0b49df1a4fde98ee17ae345cb5f6b5e2c27f5033e8ce79060200160405180910390a15050565b60006001600160e01b031982166380ac58cd60e01b1480610c0b57506001600160e01b03198216635b5e139f60e01b145b806102ef57506301ffc9a760e01b6001600160e01b03198316146102ef565b8080610c3e57506001600160a01b03821615155b15610d00576000610c4e846106d7565b90506001600160a01b03831615801590610c7a5750826001600160a01b0316816001600160a01b031614155b8015610c8d5750610c8b8184610646565b155b15610cb65760405163a9fbf51f60e01b81526001600160a01b03841660048201526024016103e5565b8115610cfe5783856001600160a01b0316826001600160a01b03167f8c5be1e5ebec7d5bd14f71427d1e84f3dd0314c0f7b2291e5b200ac8c7c3b92560405160405180910390a45b505b5050600090815260046020526040902080546001600160a01b0319166001600160a01b0392909216919091179055565b610d3b838383610e21565b6104bb576001600160a01b038316610d6957604051637e27328960e01b8152600481018290526024016103e5565b60405163177e802f60e01b81526001600160a01b0383166004820152602481018290526044016103e5565b6060610d9f826106d7565b506000610db760408051602081019091526000815290565b90506000815111610dd75760405180602001604052806000815250610e02565b80610de184610e84565b604051602001610df2929190611434565b6040516020818303038152906040525b9392505050565b610e138383610f17565b6104bb336000858585610934565b60006001600160a01b03831615801590610b685750826001600160a01b0316846001600160a01b03161480610e5b5750610e5b8484610646565b80610b685750506000908152600460205260409020546001600160a01b03908116911614919050565b60606000610e9183610f7c565b600101905060008167ffffffffffffffff811115610eb157610eb16111dc565b6040519080825280601f01601f191660200182016040528015610edb576020820181803683370190505b5090508181016020015b600019016f181899199a1a9b1b9c1cb0b131b232b360811b600a86061a8153600a8504945084610ee557509392505050565b6001600160a01b038216610f4157604051633250574960e11b8152600060048201526024016103e5565b6000610f4f8383600061071d565b90506001600160a01b038116156104bb576040516339e3563760e11b8152600060048201526024016103e5565b60008072184f03e93ff9f4daa797ed6e38ed64bf6a1f0160401b8310610fbb5772184f03e93ff9f4daa797ed6e38ed64bf6a1f0160401b830492506040015b6d04ee2d6d415b85acef81000000008310610fe7576d04ee2d6d415b85acef8100000000830492506020015b662386f26fc10000831061100557662386f26fc10000830492506010015b6305f5e100831061101d576305f5e100830492506008015b612710831061103157612710830492506004015b60648310611043576064830492506002015b600a83106102ef5760010192915050565b6001600160e01b0319811681146106af57600080fd5b60006020828403121561107c57600080fd5b8135610e0281611054565b60005b838110156110a257818101518382015260200161108a565b50506000910152565b600081518084526110c3816020860160208601611087565b601f01601f19169290920160200192915050565b602081526000610e0260208301846110ab565b6000602082840312156110fc57600080fd5b5035919050565b80356001600160a01b038116811461111a57600080fd5b919050565b6000806040838503121561113257600080fd5b61113b83611103565b946020939093013593505050565b60008060006060848603121561115e57600080fd5b61116784611103565b925061117560208501611103565b9150604084013590509250925092565b60006020828403121561119757600080fd5b610e0282611103565b600080604083850312156111b357600080fd5b6111bc83611103565b9150602083013580151581146111d157600080fd5b809150509250929050565b634e487b7160e01b600052604160045260246000fd5b600067ffffffffffffffff8084111561120d5761120d6111dc565b604051601f8501601f19908116603f01168101908282118183101715611235576112356111dc565b8160405280935085815286868601111561124e57600080fd5b858560208301376000602087830101525050509392505050565b6000806000806080858703121561127e57600080fd5b61128785611103565b935061129560208601611103565b925060408501359150606085013567ffffffffffffffff8111156112b857600080fd5b8501601f810187136112c957600080fd5b6112d8878235602084016111f2565b91505092959194509250565b600080604083850312156112f757600080fd5b61130083611103565b9150602083013567ffffffffffffffff81111561131c57600080fd5b8301601f8101851361132d57600080fd5b61133c858235602084016111f2565b9150509250929050565b6000806040838503121561135957600080fd5b61136283611103565b915061137060208401611103565b90509250929050565b600181811c9082168061138d57607f821691505b6020821081036113ad57634e487b7160e01b600052602260045260246000fd5b50919050565b6000600182016113d357634e487b7160e01b600052601160045260246000fd5b5060010190565b6001600160a01b038581168252841660208201526040810183905260806060820181905260009061140d908301846110ab565b9695505050505050565b60006020828403121561142957600080fd5b8151610e0281611054565b60008351611446818460208801611087565b83519083019061145a818360208801611087565b01949350505050565b601f8211156104bb57600081815260208120601f850160051c8101602086101561148a5750805b601f850160051c820191505b81811015610a5657828155600101611496565b815167ffffffffffffffff8111156114c3576114c36111dc565b6114d7816114d18454611379565b84611463565b602080601f83116001811461150c57600084156114f45750858301515b600019600386901b1c1916600185901b178555610a56565b600085815260208120601f198616915b8281101561153b5788860151825594840194600190910190840161151c565b50858210156115595787850151600019600388901b60f8161c191681555b5050505050600190811b0190555056fea2646970667358221220e13aef18e50ac65052efc3dccc2d5bf09537537e9019d44bc6ebb1a206c51ace64736f6c63430008140033",
  "linkReferences": {},
  "deployedLinkReferences": {}
}