{
  "_format": "hh-sol-artifact-1",
  "contractName": "TierStaking",
  "sourceName": "contracts/TierStaking.sol",
  "abi": [
    {
      "inputs": [
        {
          "internalType": "address",
          "name": "_tokenAddress",
          "type": "address"
        }
      ],
      "stateMutability": "nonpayable",
      "type": "constructor"
    },
    {
      "inputs": [
        {
          "internalType": "address",
          "name": "owner",
          "type": "address"
        }
      ],
      "name": "OwnableInvalidOwner",
      "type": "error"
    },
    {
      "inputs": [
        {
          "internalType": "address",
          "name": "account",
          "type": "address"
        }
      ],
      "name": "OwnableUnauthorizedAccount",
      "type": "error"
    },
    {
      "inputs": [],
      "name": "ReentrancyGuardReentrantCall",
      "type": "error"
    },
    {
      "inputs": [
        {
          "internalType": "address",
          "name": "token",
          "type": "address"
        }
      ],
      "name": "SafeERC20FailedOperation",
      "type": "error"
    },
    {
      "anonymous": false,
      "inputs": [
        {
          "indexed": true,
          "internalType": "address",
          "name": "to",
          "type": "address"
        },
        {
          "indexed": false,
          "internalType": "uint256",
          "name": "amount",
          "type": "uint256"
        }
      ],
      "name": "EmergencyWithdraw",
      "type": "event"
    },
    {
      "anonymous": false,
      "inputs": [
        {
          "indexed": true,
          "internalType": "address",
          "name": "previousOwner",
          "type": "address"
        },
        {
          "indexed": true,
          "internalType": "address",
          "name": "newOwner",
          "type": "address"
        }
      ],
      "name": "OwnershipTransferStarted",
      "type": "event"
    },
    {
      "anonymous": false,
      "inputs": [
        {
          "indexed": true,
          "internalType": "address",
          "name": "previousOwner",
          "type": "address"
        },
        {
          "indexed": true,
          "internalType": "address",
          "name": "newOwner",
          "type": "address"
        }
      ],
      "name": "OwnershipTransferred",
      "type": "event"
    },
    {
      "anonymous": false,
      "inputs": [
        {
          "indexed": false,
          "internalType": "uint256",
          "name": "amount",
          "type": "uint256"
        }
      ],
      "name": "RevenueCollected",
      "type": "event"
    },
    {
      "anonymous": false,
      "inputs": [
        {
          "indexed": false,
          "internalType": "uint256",
          "name": "newPercentage",
          "type": "uint256"
        }
      ],
      "name": "RevenueShareUpdated",
      "type": "event"
    },
    {
      "anonymous": false,
      "inputs": [
        {
          "indexed": true,
          "internalType": "address",
          "name": "funder",
          "type": "address"
        },
        {
          "indexed": false,
          "internalType": "uint256",
          "name": "amount",
          "type": "uint256"
        }
      ],
      "name": "RewardPoolFunded",
      "type": "event"
    },
    {
      "anonymous": false,
      "inputs": [
        {
          "indexed": true,
          "internalType": "address",
          "name": "user",
          "type": "address"
        },
        {
          "indexed": false,
          "internalType": "uint256",
          "name": "amount",
          "type": "uint256"
        }
      ],
      "name": "RewardsClaimed",
      "type": "event"
    },
    {
      "anonymous": false,
      "inputs": [
        {
          "indexed": true,
          "internalType": "address",
          "name": "user",
          "type": "address"
        },
        {
          "indexed": false,
          "internalType": "uint256",
          "name": "amount",
          "type": "uint256"
        },
        {
          "indexed": false,
          "internalType": "uint256",
          "name": "tier",
          "type": "uint256"
        }
      ],
      "name": "Staked",
      "type": "event"
    },
    {
      "anonymous": false,
      "inputs": [
        {
          "indexed": true,
          "internalType": "uint256",
          "name": "tierId",
          "type": "uint256"
        },
        {
          "indexed": false,
          "internalType": "string",
          "name": "name",
          "type": "string"
        },
        {
          "indexed": false,
          "internalType": "uint256",
          "name": "minStake",
          "type": "uint256"
        }
      ],
      "name": "TierAdded",
      "type": "event"
    },
    {
      "anonymous": false,
      "inputs": [
        {
          "indexed": true,
          "internalType": "uint256",
          "name": "tierId",
          "type": "uint256"
        },
        {
          "indexed": false,
          "internalType": "string",
          "name": "name",
          "type": "string"
        },
        {
          "indexed": false,
          "internalType": "uint256",
          "name": "minStake",
          "type": "uint256"
        }
      ],
      "name": "TierUpdated",
      "type": "event"
    },
    {
      "anonymous": false,
      "inputs": [
        {
          "indexed": true,
          "internalType": "address",
          "name": "user",
          "type": "address"
        },
        {
          "indexed": false,
          "internalType": "uint256",
          "name": "amount",
          "type": "uint256"
        }
      ],
      "name": "Unstaked",
      "type": "event"
    },
    {
      "inputs": [],
      "name": "MAX_DAILY_REWARD_RATE",
      "outputs": [
        {
          "internalType": "uint256",
          "name": "",
          "type": "uint256"
        }
      ],
      "stateMutability": "view",
      "type": "function"
    },
    {
      "inputs": [],
      "name": "acceptOwnership",
      "outputs": [],
      "stateMutability": "nonpayable",
      "type": "function"
    },
    {
      "inputs": [
        {
          "internalType": "address",
          "name": "_user",
          "type": "address"
        }
      ],
      "name": "calculatePendingRewards",
      "outputs": [
        {
          "internalType": "uint256",
          "name": "",
          "type": "uint256"
        }
      ],
      "stateMutability": "view",
      "type": "function"
    },
    {
      "inputs": [],
      "name": "claimRewards",
      "outputs": [],
      "stateMutability": "nonpayable",
      "type": "function"
    },
    {
      "inputs": [],
      "name": "collectRevenue",
      "outputs": [],
      "stateMutability": "payable",
      "type": "function"
    },
    {
      "inputs": [
        {
          "internalType": "uint256",
          "name": "_amount",
          "type": "uint256"
        }
      ],
      "name": "emergencyWithdraw",
      "outputs": [],
      "stateMutability": "nonpayable",
      "type": "function"
    },
    {
      "inputs": [
        {
          "internalType": "uint256",
          "name": "_amount",
          "type": "uint256"
        }
      ],
      "name": "fundRewardPool",
      "outputs": [],
      "stateMutability": "nonpayable",
      "type": "function"
    },
    {
      "inputs": [],
      "name": "getAllTiers",
      "outputs": [
        {
          "components": [
            {
              "internalType": "string",
              "name": "name",
              "type": "string"
            },
            {
              "internalType": "uint256",
              "name": "minStake",
              "type": "uint256"
            },
            {
              "internalType": "uint256",
              "name": "dailyRewardRate",
              "type": "uint256"
            },
            {
              "internalType": "bool",
              "name": "active",
              "type": "bool"
            }
          ],
          "internalType": "struct TierStaking.Tier[]",
          "name": "",
          "type": "tuple[]"
        }
      ],
      "stateMutability": "view",
      "type": "function"
    },
    {
      "inputs": [],
      "name": "getStats",
      "outputs": [
        {
          "internalType": "uint256",
          "name": "_totalStaked",
          "type": "uint256"
        },
        {
          "internalType": "uint256",
          "name": "_rewardPool",
          "type": "uint256"
        },
        {
          "internalType": "uint256",
          "name": "_activeStakers",
          "type": "uint256"
        }
      ],
      "stateMutability": "view",
      "type": "function"
    },
    {
      "inputs": [
        {
          "internalType": "address",
          "name": "_user",
          "type": "address"
        }
      ],
      "name": "getUserTier",
      "outputs": [
        {
          "internalType": "uint256",
          "name": "tierLevel",
          "type": "uint256"
        },
        {
          "internalType": "string",
          "name": "tierName",
          "type": "string"
        },
        {
          "internalType": "uint256",
          "name": "stakedAmount",
          "type": "uint256"
        },
        {
          "internalType": "uint256",
          "name": "pendingRewards",
          "type": "uint256"
        }
      ],
      "stateMutability": "view",
      "type": "function"
    },
    {
      "inputs": [
        {
          "internalType": "address",
          "name": "_user",
          "type": "address"
        },
        {
          "internalType": "uint256",
          "name": "_tierLevel",
          "type": "uint256"
        }
      ],
      "name": "hasTier",
      "outputs": [
        {
          "internalType": "bool",
          "name": "",
          "type": "bool"
        }
      ],
      "stateMutability": "view",
      "type": "function"
    },
    {
      "inputs": [],
      "name": "owner",
      "outputs": [
        {
          "internalType": "address",
          "name": "",
          "type": "address"
        }
      ],
      "stateMutability": "view",
      "type": "function"
    },
    {
      "inputs": [],
      "name": "pendingOwner",
      "outputs": [
        {
          "internalType": "address",
          "name": "",
          "type": "address"
        }
      ],
      "stateMutability": "view",
      "type": "function"
    },
    {
      "inputs": [],
      "name": "renounceOwnership",
      "outputs": [],
      "stateMutability": "nonpayable",
      "type": "function"
    },
    {
      "inputs": [],
      "name": "revenueSharePercent",
      "outputs": [
        {
          "internalType": "uint256",
          "name": "",
          "type": "uint256"
        }
      ],
      "stateMutability": "view",
      "type": "function"
    },
    {
      "inputs": [],
      "name": "rewardPool",
      "outputs": [
        {
          "internalType": "uint256",
          "name": "",
          "type": "uint256"
        }
      ],
      "stateMutability": "view",
      "type": "function"
    },
    {
      "inputs": [],
      "name": "sanctumToken",
      "outputs": [
        {
          "internalType": "contract IERC20",
          "name": "",
          "type": "address"
        }
      ],
      "stateMutability": "view",
      "type": "function"
    },
    {
      "inputs": [
        {
          "internalType": "uint256",
          "name": "_percentage",
          "type": "uint256"
        }
      ],
      "name": "setRevenueShare",
      "outputs": [],
      "stateMutability": "nonpayable",
      "type": "function"
    },
    {
      "inputs": [
        {
          "internalType": "uint256",
          "name": "_tierId",
          "type": "uint256"
        },
        {
          "internalType": "string",
          "name": "_name",
          "type": "string"
        },
        {
          "internalType": "uint256",
          "name": "_minStake",
          "type": "uint256"
        },
        {
          "internalType": "uint256",
          "name": "_dailyRewardRate",
          "type": "uint256"
        },
        {
          "internalType": "bool",
          "name": "_active",
          "type": "bool"
        }
      ],
      "name": "setTier",
      "outputs": [],
      "stateMutability": "nonpayable",
      "type": "function"
    },
    {
      "inputs": [
        {
          "internalType": "uint256",
          "name": "_amount",
          "type": "uint256"
        }
      ],
      "name": "stake",
      "outputs": [],
      "stateMutability": "nonpayable",
      "type": "function"
    },
    {
      "inputs": [
        {
          "internalType": "address",
          "name": "",
          "type": "address"
        }
      ],
      "name": "stakes",
      "outputs": [
        {
          "internalType": "uint256",
          "name": "amount",
          "type": "uint256"
        },
        {
          "internalType": "uint256",
          "name": "tierLevel",
          "type": "uint256"
        },
        {
          "internalType": "uint256",
          "name": "lastClaimTime",
          "type": "uint256"
        },
        {
          "internalType": "uint256",
          "name": "totalClaimed",
          "type": "uint256"
        },
        {
          "internalType": "uint256",
          "name": "stakeStartTime",
          "type": "uint256"
        }
      ],
      "stateMutability": "view",
      "type": "function"
    },
    {
      "inputs": [],
      "name": "tierCount",
      "outputs": [
        {
          "internalType": "uint256",
          "name": "",
          "type": "uint256"
        }
      ],
      "stateMutability": "view",
      "type": "function"
    },
    {
      "inputs": [
        {
          "internalType": "uint256",
          "name": "",
          "type": "uint256"
        }
      ],
      "name": "tiers",
      "outputs": [
        {
          "internalType": "string",
          "name": "name",
          "type": "string"
        },
        {
          "internalType": "uint256",
          "name": "minStake",
          "type": "uint256"
        },
        {
          "internalType": "uint256",
          "name": "dailyRewardRate",
          "type": "uint256"
        },
        {
          "internalType": "bool",
          "name": "active",
          "type": "bool"
        }
      ],
      "stateMutability": "view",
      "type": "function"
    },
    {
      "inputs": [],
      "name": "totalStaked",
      "outputs": [
        {
          "internalType": "uint256",
          "name": "",
          "type": "uint256"
        }
      ],
      "stateMutability": "view",
      "type": "function"
    },
    {
      "inputs": [
        {
          "internalType": "address",
          "name": "newOwner",
          "type": "address"
        }
      ],
      "name": "transferOwnership",
      "outputs": [],
      "stateMutability": "nonpayable",
      "type": "function"
    },
    {
      "inputs": [],
      "name": "unstake",
      "outputs": [],
      "stateMutability": "nonpayable",
      "type": "function"
    }
  ],
  "bytecode": "0x6080604052601e6009553480156200001657600080fd5b50604051620020ac380380620020ac8339810160408190526200003991620004d8565b33806200006157604051631e4fbdf760e01b8152600060048201526024015b60405180910390fd5b6200006c816200046a565b5060016002556001600160a01b038116620000ca5760405162461bcd60e51b815260206004820152601560248201527f496e76616c696420746f6b656e20616464726573730000000000000000000000604482015260640162000058565b600380546001600160a01b0319166001600160a01b0383161790556040805160c0810182526008608082019081526722bc383637b932b960c11b60a0830152815260006020808301829052928201819052600160608301528052600490915280517f17ef568e3e12ab5b9c7254a8d58478811de00f9e6eb34345acd53bf8fd09d3ec9081906200015b9082620005af565b5060208281015160018381019190915560408085015160028501556060948501516003909401805460ff191694151594909417909355825160c081018452600a60808201908152692932b9b2b0b931b432b960b11b60a0830152815268056bc75e2d6310000081840152600593810193909352928201839052600092909252600490915280517fabd6e7cb50984ff9c2f3e18a2660c3353dadf4e3291deeb275dae2cd1e44fe05908190620002119082620005af565b506020828101516001838101919091556040808501516002808601919091556060958601516003909501805460ff191695151595909517909455805160c08101825260076080820190815266105b985b1e5cdd60ca1b60a08301528152683635c9adc5dea0000081850152600a91810191909152938401526000919091526004905280517f91da3fd0782e51c6b3986e9e672fd566868e71f3dbc2d6c2cd6fbb3e361af2a7908190620002c59082620005af565b5060208281015160018381019190915560408085015160028501556060948501516003948501805460ff1916911515919091179055805160c081018252600d608082019081526c125b9cdd1a5d1d5d1a5bdb985b609a1b60a0830152815269021e19e0c9bab240000081850152600f91810191909152938401526000919091526004905280517f2e174c10e159ea99b867ce3205125c24a42d128804e4070ed6fcc8cc98166aa09081906200037b9082620005af565b5060208281015160018381019190915560408085015160028501556060948501516003909401805460ff191694151594909417909355825160c0810184526008608082019081526715995c9a599a595960c21b60a0830152815269152d02c7e14af680000081840152601993810193909352928201929092526004600081905290915280517f1a1e6821cde7d0159c0d293177871e09677b4e42307c7db3ba94f8648a5a050f908190620004309082620005af565b5060208201516001820155604082015160028201556060909101516003909101805460ff191691151591909117905550600580556200067b565b600180546001600160a01b0319169055620004858162000488565b50565b600080546001600160a01b038381166001600160a01b0319831681178455604051919092169283917f8be0079c531659141344cd1fd0a4f28419497f9722a3daafe3b4186f6b6457e09190a35050565b600060208284031215620004eb57600080fd5b81516001600160a01b03811681146200050357600080fd5b9392505050565b634e487b7160e01b600052604160045260246000fd5b600181811c908216806200053557607f821691505b6020821081036200055657634e487b7160e01b600052602260045260246000fd5b50919050565b601f821115620005aa57600081815260208120601f850160051c81016020861015620005855750805b601f850160051c820191505b81811015620005a65782815560010162000591565b5050505b505050565b81516001600160401b03811115620005cb57620005cb6200050a565b620005e381620005dc845462000520565b846200055c565b602080601f8311600181146200061b5760008415620006025750858301515b600019600386901b1c1916600185901b178555620005a6565b600085815260208120601f198616915b828110156200064c578886015182559484019460019091019084016200062b565b50858210156200066b5787850151600019600388901b60f8161c191681555b5050505050600190811b01905550565b611a21806200068b6000396000f3fe6080604052600436106101815760003560e01c8063715018a6116100d1578063a694fc3a1161008a578063e30c397811610064578063e30c397814610497578063e4d2620e146104b5578063ed14d17e146104e5578063f2fde38b146104ed57600080fd5b8063a694fc3a14610427578063c59d484714610447578063cb1271041461047757600080fd5b8063715018a61461037b57806379ba5097146103905780637be768d3146103a5578063817b1cd2146103dd5780638da5cb5b146103f357806396b55f7d1461041157600080fd5b80632def66201161013e5780635312ea8e116101185780635312ea8e146103035780636471af831461032357806366666aa9146103455780636e669d7a1461035b57600080fd5b80632def6620146102c3578063372500ab146102d8578063385086ce146102ed57600080fd5b806301a035331461018657806302930040146101bb578063039af9eb146101df578063097aad101461020f57806316934fc41461022f5780631d583e0d146102a1575b600080fd5b34801561019257600080fd5b506101a66101a1366004611549565b61050d565b60405190151581526020015b60405180910390f35b3480156101c757600080fd5b506101d16103e881565b6040519081526020016101b2565b3480156101eb57600080fd5b506101ff6101fa366004611573565b610533565b6040516101b294939291906115d2565b34801561021b57600080fd5b506101d161022a366004611603565b6105e8565b34801561023b57600080fd5b5061027961024a366004611603565b600660205260009081526040902080546001820154600283015460038401546004909401549293919290919085565b604080519586526020860194909452928401919091526060830152608082015260a0016101b2565b3480156102ad57600080fd5b506102c16102bc366004611573565b610761565b005b3480156102cf57600080fd5b506102c1610909565b3480156102e457600080fd5b506102c16109e7565b3480156102f957600080fd5b506101d160095481565b34801561030f57600080fd5b506102c161031e366004611573565b610a02565b34801561032f57600080fd5b50610338610ad6565b6040516101b29190611625565b34801561035157600080fd5b506101d160085481565b34801561036757600080fd5b506102c1610376366004611573565b610c5e565b34801561038757600080fd5b506102c1610ce7565b34801561039c57600080fd5b506102c1610cf9565b3480156103b157600080fd5b506003546103c5906001600160a01b031681565b6040516001600160a01b0390911681526020016101b2565b3480156103e957600080fd5b506101d160075481565b3480156103ff57600080fd5b506000546001600160a01b03166103c5565b34801561041d57600080fd5b506101d160055481565b34801561043357600080fd5b506102c1610442366004611573565b610d3a565b34801561045357600080fd5b506007546008546000604080519384526020840192909252908201526060016101b2565b34801561048357600080fd5b506102c16104923660046116d8565b610e4c565b3480156104a357600080fd5b506001546001600160a01b03166103c5565b3480156104c157600080fd5b506104d56104d0366004611603565b610fac565b6040516101b294939291906117b7565b6102c1611087565b3480156104f957600080fd5b506102c1610508366004611603565b611108565b6001600160a01b0382166000908152600660205260409020600101548111155b92915050565b60046020526000908152604090208054819061054e906117e3565b80601f016020809104026020016040519081016040528092919081815260200182805461057a906117e3565b80156105c75780601f1061059c576101008083540402835291602001916105c7565b820191906000526020600020905b8154815290600101906020018083116105aa57829003601f168201915b50505050600183015460028401546003909401549293909290915060ff1684565b6001600160a01b0381166000908152600660205260408120805482036106115750600092915050565b600181015460009081526004602052604080822081516080810190925280548290829061063d906117e3565b80601f0160208091040260200160405190810160405280929190818152602001828054610669906117e3565b80156106b65780601f1061068b576101008083540402835291602001916106b6565b820191906000526020600020905b81548152906001019060200180831161069957829003601f168201915b5050509183525050600182015460208201526002820154604082015260039091015460ff16151560609182015281015190915015806106f757506040810151155b15610706575060009392505050565b6000826002015442610718919061182d565b905060006107296201518083611840565b905061271081846040015186600001546107439190611862565b61074d9190611862565b6107579190611840565b9695505050505050565b610769611179565b806000036107ae5760405162461bcd60e51b815260206004820152600d60248201526c043616e6e6f742066756e64203609c1b60448201526064015b60405180910390fd5b6003546040516370a0823160e01b81523060048201526000916001600160a01b0316906370a0823190602401602060405180830381865afa1580156107f7573d6000803e3d6000fd5b505050506040513d601f19601f8201168201806040525081019061081b9190611879565b600354909150610836906001600160a01b03163330856111a1565b6003546040516370a0823160e01b81523060048201526000916001600160a01b0316906370a0823190602401602060405180830381865afa15801561087f573d6000803e3d6000fd5b505050506040513d601f19601f820116820180604052508101906108a39190611879565b905060006108b1838361182d565b9050806008546108c19190611892565b60085560405181815233907fd3c7d1587d8f93bae0fcfc5a820d2187e755a75ec28a06c20a9da047e1b01eb59060200160405180910390a25050506109066001600255565b50565b610911611179565b33600090815260066020526040812080549091036109675760405162461bcd60e51b81526020600482015260136024820152724e6f207374616b6520746f20756e7374616b6560681b60448201526064016107a5565b6109703361120e565b80546000808355600183015560075461098a90829061182d565b6007556003546109a4906001600160a01b03163383611392565b60405181815233907f0f5bb82176feb1b5e747e28471aa92156a04d9f3ab9f45f28e2d704232b93f759060200160405180910390a250506109e56001600255565b565b6109ef611179565b6109f83361120e565b6109e56001600255565b610a0a6113c8565b610a12611179565b80600003610a565760405162461bcd60e51b8152602060048201526011602482015270043616e6e6f74207769746864726177203607c1b60448201526064016107a5565b610a7e610a6b6000546001600160a01b031690565b6003546001600160a01b03169083611392565b6000546001600160a01b03166001600160a01b03167f5fafa99d0643513820be26656b45130b01e1c03062e1266bf36f88cbd3bd969582604051610ac491815260200190565b60405180910390a26109066001600255565b6060600060055467ffffffffffffffff811115610af557610af56116b2565b604051908082528060200260200182016040528015610b5357816020015b610b4060405180608001604052806060815260200160008152602001600081526020016000151581525090565b815260200190600190039081610b135790505b50905060005b600554811015610c585760008181526004602052604090819020815160808101909252805482908290610b8b906117e3565b80601f0160208091040260200160405190810160405280929190818152602001828054610bb7906117e3565b8015610c045780601f10610bd957610100808354040283529160200191610c04565b820191906000526020600020905b815481529060010190602001808311610be757829003601f168201915b5050509183525050600182015460208201526002820154604082015260039091015460ff1615156060909101528251839083908110610c4557610c456118a5565b6020908102919091010152600101610b59565b50919050565b610c666113c8565b6064811115610cac5760405162461bcd60e51b815260206004820152601260248201527143616e6e6f7420657863656564203130302560701b60448201526064016107a5565b60098190556040518181527f343a3cad72a9e3a0fe71e8417402226b647587dfd1713f79f85413ed27df7f7b9060200160405180910390a150565b610cef6113c8565b6109e560006113f5565b60015433906001600160a01b03168114610d315760405163118cdaa760e01b81526001600160a01b03821660048201526024016107a5565b610906816113f5565b610d42611179565b80600003610d835760405162461bcd60e51b815260206004820152600e60248201526d043616e6e6f74207374616b6520360941b60448201526064016107a5565b336000908152600660205260409020805415610da757610da23361120e565b610db5565b426002820181905560048201555b600354610dcd906001600160a01b03163330856111a1565b8054610dda908390611892565b8155600754610dea908390611892565b6007558054600090610dfb9061140e565b60018301819055604080518581526020810183905291925033917f1449c6dd7851abc30abf37f57715f492010519147cc2652fbc38202c18a6ee90910160405180910390a250506109066001600255565b610e546113c8565b8351600003610e9c5760405162461bcd60e51b81526020600482015260146024820152734e616d652063616e6e6f7420626520656d70747960601b60448201526064016107a5565b6103e8821115610ee55760405162461bcd60e51b81526020600482015260146024820152730a4caeec2e4c840e4c2e8ca40e8dede40d0d2ced60631b60448201526064016107a5565b6040805160808101825285815260208082018690528183018590528315156060830152600088815260049091529190912081518190610f249082611909565b5060208201516001820155604082015160028201556060909101516003909101805460ff19169115159190911790556005548510610f6b57610f67856001611892565b6005555b847f31661371a86b83a36bdf4791eef504c238016cffda1df3d6f6f8137c40ad257c8585604051610f9d9291906119c9565b60405180910390a25050505050565b6001600160a01b03811660009081526006602090815260408083206001810154808552600490935290832080549293606093909283929091610fed906117e3565b80601f0160208091040260200160405190810160405280929190818152602001828054611019906117e3565b80156110665780601f1061103b57610100808354040283529160200191611066565b820191906000526020600020905b81548152906001019060200180831161104957829003601f168201915b505050505093508060000154925061107d866105e8565b9150509193509193565b61108f6113c8565b346000036110d35760405162461bcd60e51b81526020600482015260116024820152704d7573742073656e6420726576656e756560781b60448201526064016107a5565b6040513481527f57af161438f8fdc89d286da9e49368f4583497e141ba2de6efa3977569193f0b9060200160405180910390a1565b6111106113c8565b600180546001600160a01b0383166001600160a01b031990911681179091556111416000546001600160a01b031690565b6001600160a01b03167f38d16b8cac22d99fc7c124b9cd0de2d3fa1faef420bfe791d8c362d765e2270060405160405180910390a350565b600280540361119b57604051633ee5aeb560e01b815260040160405180910390fd5b60028055565b6040516001600160a01b0384811660248301528381166044830152606482018390526112089186918216906323b872dd906084015b604051602081830303815290604052915060e01b6020820180516001600160e01b03838183161783525050505061146c565b50505050565b6001600160a01b038116600090815260066020526040812080549091036112625760405162461bcd60e51b81526020600482015260086024820152674e6f207374616b6560c01b60448201526064016107a5565b600061126d836105e8565b9050806000036112b55760405162461bcd60e51b81526020600482015260136024820152724e6f207265776172647320746f20636c61696d60681b60448201526064016107a5565b6008548111156113075760405162461bcd60e51b815260206004820152601860248201527f496e73756666696369656e742072657761726420706f6f6c000000000000000060448201526064016107a5565b426002830155600382015461131d908290611892565b600383015560085461133090829061182d565b60085560035461134a906001600160a01b03168483611392565b826001600160a01b03167ffc30cddea38e2bf4d6ea7d3f9ed3b6ad7f176419f4963bd81318067a4aee73fe8260405161138591815260200190565b60405180910390a2505050565b6040516001600160a01b038381166024830152604482018390526113c391859182169063a9059cbb906064016111d6565b505050565b6000546001600160a01b031633146109e55760405163118cdaa760e01b81523360048201526024016107a5565b600180546001600160a01b0319169055610906816114dd565b6005546000908190815b818110156114635760008181526004602052604090206003015460ff16801561145257506000818152600460205260409020600101548510155b1561145b578092505b600101611418565b50909392505050565b600080602060008451602086016000885af18061148f576040513d6000823e3d81fd5b50506000513d915081156114a75780600114156114b4565b6001600160a01b0384163b155b1561120857604051635274afe760e01b81526001600160a01b03851660048201526024016107a5565b600080546001600160a01b038381166001600160a01b0319831681178455604051919092169283917f8be0079c531659141344cd1fd0a4f28419497f9722a3daafe3b4186f6b6457e09190a35050565b80356001600160a01b038116811461154457600080fd5b919050565b6000806040838503121561155c57600080fd5b6115658361152d565b946020939093013593505050565b60006020828403121561158557600080fd5b5035919050565b6000815180845260005b818110156115b257602081850181015186830182015201611596565b506000602082860101526020601f19601f83011685010191505092915050565b6080815260006115e5608083018761158c565b60208301959095525060408101929092521515606090910152919050565b60006020828403121561161557600080fd5b61161e8261152d565b9392505050565b60006020808301818452808551808352604092508286019150828160051b87010184880160005b838110156116a457603f198984030185528151608081518186526116728287018261158c565b838b0151878c0152898401518a880152606093840151151593909601929092525050938601939086019060010161164c565b509098975050505050505050565b634e487b7160e01b600052604160045260246000fd5b8035801515811461154457600080fd5b600080600080600060a086880312156116f057600080fd5b85359450602086013567ffffffffffffffff8082111561170f57600080fd5b818801915088601f83011261172357600080fd5b813581811115611735576117356116b2565b604051601f8201601f19908116603f0116810190838211818310171561175d5761175d6116b2565b816040528281528b602084870101111561177657600080fd5b82602086016020830137600060208483010152809850505050505060408601359250606086013591506117ab608087016116c8565b90509295509295909350565b8481526080602082015260006117d0608083018661158c565b6040830194909452506060015292915050565b600181811c908216806117f757607f821691505b602082108103610c5857634e487b7160e01b600052602260045260246000fd5b634e487b7160e01b600052601160045260246000fd5b8181038181111561052d5761052d611817565b60008261185d57634e487b7160e01b600052601260045260246000fd5b500490565b808202811582820484141761052d5761052d611817565b60006020828403121561188b57600080fd5b5051919050565b8082018082111561052d5761052d611817565b634e487b7160e01b600052603260045260246000fd5b601f8211156113c357600081815260208120601f850160051c810160208610156118e25750805b601f850160051c820191505b81811015611901578281556001016118ee565b505050505050565b815167ffffffffffffffff811115611923576119236116b2565b6119378161193184546117e3565b846118bb565b602080601f83116001811461196c57600084156119545750858301515b600019600386901b1c1916600185901b178555611901565b600085815260208120601f198616915b8281101561199b5788860151825594840194600190910190840161197c565b50858210156119b95787850151600019600388901b60f8161c191681555b5050505050600190811b01905550565b6040815260006119dc604083018561158c565b9050826020830152939250505056fea264697066735822122094b31503aff6a7b1f7f3e19be40e9ad38b2bde238bb6f2448459949ac0d11de164736f6c63430008140033",
  "linkReferences": {},
  "deployedLinkReferences": {}
}