{
  "_format": "hh-sol-artifact-1",
  "contractName": "ResearchRewards",
  "sourceName": "contracts/ResearchRewards.sol",
  "abi": [
    {
      "inputs": [
        {
          "internalType": "address",
          "name": "_tokenAddress",
          "type": "address"
        }
      ],
      "stateMutability": "nonpayable",
      "type": "constructor"
    },
    {
      "inputs": [
        {
          "internalType": "address",
          "name": "owner",
          "type": "address"
        }
      ],
      "name": "OwnableInvalidOwner",
      "type": "error"
    },
    {
      "inputs": [
        {
          "internalType": "address",
          "name": "account",
          "type": "address"
        }
      ],
      "name": "OwnableUnauthorizedAccount",
      "type": "error"
    },
    {
      "inputs": [],
      "name": "ReentrancyGuardReentrantCall",
      "type": "error"
    },
    {
      "inputs": [
        {
          "internalType": "address",
          "name": "token",
          "type": "address"
        }
      ],
      "name": "SafeERC20FailedOperation",
      "type": "error"
    },
    {
      "anonymous": false,
      "inputs": [
        {
          "indexed": false,
          "internalType": "uint256",
          "name": "newCooldown",
          "type": "uint256"
        }
      ],
      "name": "CooldownUpdated",
      "type": "event"
    },
    {
      "anonymous": false,
      "inputs": [
        {
          "indexed": true,
          "internalType": "address",
          "name": "previousOwner",
          "type": "address"
        },
        {
          "indexed": true,
          "internalType": "address",
          "name": "newOwner",
          "type": "address"
        }
      ],
      "name": "OwnershipTransferStarted",
      "type": "event"
    },
    {
      "anonymous": false,
      "inputs": [
        {
          "indexed": true,
          "internalType": "address",
          "name": "previousOwner",
          "type": "address"
        },
        {
          "indexed": true,
          "internalType": "address",
          "name": "newOwner",
          "type": "address"
        }
      ],
      "name": "OwnershipTransferred",
      "type": "event"
    },
    {
      "anonymous": false,
      "inputs": [
        {
          "indexed": true,
          "internalType": "enum ResearchRewards.SubmissionType",
          "name": "subType",
          "type": "uint8"
        },
        {
          "indexed": false,
          "internalType": "uint256",
          "name": "multiplier",
          "type": "uint256"
        }
      ],
      "name": "RewardMultiplierUpdated",
      "type": "event"
    },
    {
      "anonymous": false,
      "inputs": [
        {
          "indexed": true,
          "internalType": "uint256",
          "name": "submissionId",
          "type": "uint256"
        },
        {
          "indexed": true,
          "internalType": "address",
          "name": "researcher",
          "type": "address"
        },
        {
          "indexed": false,
          "internalType": "uint256",
          "name": "amount",
          "type": "uint256"
        }
      ],
      "name": "RewardPaid",
      "type": "event"
    },
    {
      "anonymous": false,
      "inputs": [
        {
          "indexed": true,
          "internalType": "uint256",
          "name": "submissionId",
          "type": "uint256"
        },
        {
          "indexed": true,
          "internalType": "address",
          "name": "researcher",
          "type": "address"
        },
        {
          "indexed": false,
          "internalType": "string",
          "name": "modelId",
          "type": "string"
        },
        {
          "indexed": false,
          "internalType": "enum ResearchRewards.SubmissionType",
          "name": "submissionType",
          "type": "uint8"
        }
      ],
      "name": "SubmissionCreated",
      "type": "event"
    },
    {
      "anonymous": false,
      "inputs": [
        {
          "indexed": true,
          "internalType": "uint256",
          "name": "submissionId",
          "type": "uint256"
        },
        {
          "indexed": true,
          "internalType": "address",
          "name": "verifier",
          "type": "address"
        },
        {
          "indexed": false,
          "internalType": "uint8",
          "name": "qualityScore",
          "type": "uint8"
        },
        {
          "indexed": false,
          "internalType": "uint256",
          "name": "rewardAmount",
          "type": "uint256"
        }
      ],
      "name": "SubmissionVerified",
      "type": "event"
    },
    {
      "anonymous": false,
      "inputs": [
        {
          "indexed": true,
          "internalType": "address",
          "name": "newToken",
          "type": "address"
        }
      ],
      "name": "TokenAddressUpdated",
      "type": "event"
    },
    {
      "anonymous": false,
      "inputs": [
        {
          "indexed": true,
          "internalType": "address",
          "name": "verifier",
          "type": "address"
        }
      ],
      "name": "VerifierAdded",
      "type": "event"
    },
    {
      "anonymous": false,
      "inputs": [
        {
          "indexed": true,
          "internalType": "address",
          "name": "verifier",
          "type": "address"
        }
      ],
      "name": "VerifierRemoved",
      "type": "event"
    },
    {
      "inputs": [],
      "name": "MIN_SCORE_FOR_REWARD",
      "outputs": [
        {
          "internalType": "uint256",
          "name": "",
          "type": "uint256"
        }
      ],
      "stateMutability": "view",
      "type": "function"
    },
    {
      "inputs": [],
      "name": "acceptOwnership",
      "outputs": [],
      "stateMutability": "nonpayable",
      "type": "function"
    },
    {
      "inputs": [
        {
          "internalType": "address",
          "name": "_verifier",
          "type": "address"
        }
      ],
      "name": "addVerifier",
      "outputs": [],
      "stateMutability": "nonpayable",
      "type": "function"
    },
    {
      "inputs": [
        {
          "internalType": "uint256[]",
          "name": "_submissionIds",
          "type": "uint256[]"
        },
        {
          "internalType": "uint8[]",
          "name": "_qualityScores",
          "type": "uint8[]"
        },
        {
          "internalType": "bool[]",
          "name": "_approved",
          "type": "bool[]"
        }
      ],
      "name": "batchVerify",
      "outputs": [],
      "stateMutability": "nonpayable",
      "type": "function"
    },
    {
      "inputs": [],
      "name": "getPendingCount",
      "outputs": [
        {
          "internalType": "uint256",
          "name": "count",
          "type": "uint256"
        }
      ],
      "stateMutability": "view",
      "type": "function"
    },
    {
      "inputs": [
        {
          "internalType": "address",
          "name": "_researcher",
          "type": "address"
        }
      ],
      "name": "getResearcherSubmissions",
      "outputs": [
        {
          "internalType": "uint256[]",
          "name": "",
          "type": "uint256[]"
        }
      ],
      "stateMutability": "view",
      "type": "function"
    },
    {
      "inputs": [],
      "name": "getStats",
      "outputs": [
        {
          "internalType": "uint256",
          "name": "_totalSubmissions",
          "type": "uint256"
        },
        {
          "internalType": "uint256",
          "name": "_totalVerified",
          "type": "uint256"
        },
        {
          "internalType": "uint256",
          "name": "_totalRewardsPaid",
          "type": "uint256"
        },
        {
          "internalType": "uint256",
          "name": "_pendingCount",
          "type": "uint256"
        },
        {
          "internalType": "uint256",
          "name": "_tokenBalance",
          "type": "uint256"
        }
      ],
      "stateMutability": "view",
      "type": "function"
    },
    {
      "inputs": [
        {
          "internalType": "uint256",
          "name": "_submissionId",
          "type": "uint256"
        }
      ],
      "name": "getSubmission",
      "outputs": [
        {
          "components": [
            {
              "internalType": "address",
              "name": "researcher",
              "type": "address"
            },
            {
              "internalType": "string",
              "name": "modelId",
              "type": "string"
            },
            {
              "internalType": "string",
              "name": "ipfsHash",
              "type": "string"
            },
            {
              "internalType": "enum ResearchRewards.SubmissionType",
              "name": "submissionType",
              "type": "uint8"
            },
            {
              "internalType": "uint256",
              "name": "timestamp",
              "type": "uint256"
            },
            {
              "internalType": "uint256",
              "name": "rewardAmount",
              "type": "uint256"
            },
            {
              "internalType": "bool",
              "name": "verified",
              "type": "bool"
            },
            {
              "internalType": "bool",
              "name": "paid",
              "type": "bool"
            },
            {
              "internalType": "address",
              "name": "verifier",
              "type": "address"
            },
            {
              "internalType": "uint8",
              "name": "qualityScore",
              "type": "uint8"
            }
          ],
          "internalType": "struct ResearchRewards.Submission",
          "name": "",
          "type": "tuple"
        }
      ],
      "stateMutability": "view",
      "type": "function"
    },
    {
      "inputs": [
        {
          "internalType": "address",
          "name": "",
          "type": "address"
        }
      ],
      "name": "isVerifier",
      "outputs": [
        {
          "internalType": "bool",
          "name": "",
          "type": "bool"
        }
      ],
      "stateMutability": "view",
      "type": "function"
    },
    {
      "inputs": [
        {
          "internalType": "address",
          "name": "",
          "type": "address"
        }
      ],
      "name": "lastSubmissionTime",
      "outputs": [
        {
          "internalType": "uint256",
          "name": "",
          "type": "uint256"
        }
      ],
      "stateMutability": "view",
      "type": "function"
    },
    {
      "inputs": [],
      "name": "owner",
      "outputs": [
        {
          "internalType": "address",
          "name": "",
          "type": "address"
        }
      ],
      "stateMutability": "view",
      "type": "function"
    },
    {
      "inputs": [],
      "name": "pendingOwner",
      "outputs": [
        {
          "internalType": "address",
          "name": "",
          "type": "address"
        }
      ],
      "stateMutability": "view",
      "type": "function"
    },
    {
      "inputs": [
        {
          "internalType": "uint256",
          "name": "",
          "type": "uint256"
        }
      ],
      "name": "pendingVerification",
      "outputs": [
        {
          "internalType": "bool",
          "name": "",
          "type": "bool"
        }
      ],
      "stateMutability": "view",
      "type": "function"
    },
    {
      "inputs": [
        {
          "internalType": "contract IERC20",
          "name": "token",
          "type": "address"
        },
        {
          "internalType": "address",
          "name": "to",
          "type": "address"
        },
        {
          "internalType": "uint256",
          "name": "amount",
          "type": "uint256"
        }
      ],
      "name": "recoverERC20",
      "outputs": [],
      "stateMutability": "nonpayable",
      "type": "function"
    },
    {
      "inputs": [
        {
          "internalType": "address",
          "name": "_verifier",
          "type": "address"
        }
      ],
      "name": "removeVerifier",
      "outputs": [],
      "stateMutability": "nonpayable",
      "type": "function"
    },
    {
      "inputs": [],
      "name": "renounceOwnership",
      "outputs": [],
      "stateMutability": "nonpayable",
      "type": "function"
    },
    {
      "inputs": [
        {
          "internalType": "address",
          "name": "",
          "type": "address"
        },
        {
          "internalType": "uint256",
          "name": "",
          "type": "uint256"
        }
      ],
      "name": "researcherSubmissions",
      "outputs": [
        {
          "internalType": "uint256",
          "name": "",
          "type": "uint256"
        }
      ],
      "stateMutability": "view",
      "type": "function"
    },
    {
      "inputs": [
        {
          "internalType": "enum ResearchRewards.SubmissionType",
          "name": "",
          "type": "uint8"
        }
      ],
      "name": "rewardMultipliers",
      "outputs": [
        {
          "internalType": "uint256",
          "name": "",
          "type": "uint256"
        }
      ],
      "stateMutability": "view",
      "type": "function"
    },
    {
      "inputs": [],
      "name": "sanctumToken",
      "outputs": [
        {
          "internalType": "contract IERC20",
          "name": "",
          "type": "address"
        }
      ],
      "stateMutability": "view",
      "type": "function"
    },
    {
      "inputs": [
        {
          "internalType": "uint256",
          "name": "_cooldown",
          "type": "uint256"
        }
      ],
      "name": "setCooldown",
      "outputs": [],
      "stateMutability": "nonpayable",
      "type": "function"
    },
    {
      "inputs": [
        {
          "internalType": "enum ResearchRewards.SubmissionType",
          "name": "_type",
          "type": "uint8"
        },
        {
          "internalType": "uint256",
          "name": "_multiplier",
          "type": "uint256"
        }
      ],
      "name": "setRewardMultiplier",
      "outputs": [],
      "stateMutability": "nonpayable",
      "type": "function"
    },
    {
      "inputs": [
        {
          "internalType": "address",
          "name": "_tokenAddress",
          "type": "address"
        }
      ],
      "name": "setTokenAddress",
      "outputs": [],
      "stateMutability": "nonpayable",
      "type": "function"
    },
    {
      "inputs": [],
      "name": "submissionCooldown",
      "outputs": [
        {
          "internalType": "uint256",
          "name": "",
          "type": "uint256"
        }
      ],
      "stateMutability": "view",
      "type": "function"
    },
    {
      "inputs": [
        {
          "internalType": "uint256",
          "name": "",
          "type": "uint256"
        }
      ],
      "name": "submissions",
      "outputs": [
        {
          "internalType": "address",
          "name": "researcher",
          "type": "address"
        },
        {
          "internalType": "string",
          "name": "modelId",
          "type": "string"
        },
        {
          "internalType": "string",
          "name": "ipfsHash",
          "type": "string"
        },
        {
          "internalType": "enum ResearchRewards.SubmissionType",
          "name": "submissionType",
          "type": "uint8"
        },
        {
          "internalType": "uint256",
          "name": "timestamp",
          "type": "uint256"
        },
        {
          "internalType": "uint256",
          "name": "rewardAmount",
          "type": "uint256"
        },
        {
          "internalType": "bool",
          "name": "verified",
          "type": "bool"
        },
        {
          "internalType": "bool",
          "name": "paid",
          "type": "bool"
        },
        {
          "internalType": "address",
          "name": "verifier",
          "type": "address"
        },
        {
          "internalType": "uint8",
          "name": "qualityScore",
          "type": "uint8"
        }
      ],
      "stateMutability": "view",
      "type": "function"
    },
    {
      "inputs": [
        {
          "internalType": "string",
          "name": "_modelId",
          "type": "string"
        },
        {
          "internalType": "string",
          "name": "_ipfsHash",
          "type": "string"
        },
        {
          "internalType": "enum ResearchRewards.SubmissionType",
          "name": "_submissionType",
          "type": "uint8"
        }
      ],
      "name": "submitResearch",
      "outputs": [
        {
          "internalType": "uint256",
          "name": "submissionId",
          "type": "uint256"
        }
      ],
      "stateMutability": "nonpayable",
      "type": "function"
    },
    {
      "inputs": [],
      "name": "totalRewardsPaid",
      "outputs": [
        {
          "internalType": "uint256",
          "name": "",
          "type": "uint256"
        }
      ],
      "stateMutability": "view",
      "type": "function"
    },
    {
      "inputs": [],
      "name": "totalSubmissions",
      "outputs": [
        {
          "internalType": "uint256",
          "name": "",
          "type": "uint256"
        }
      ],
      "stateMutability": "view",
      "type": "function"
    },
    {
      "inputs": [],
      "name": "totalVerified",
      "outputs": [
        {
          "internalType": "uint256",
          "name": "",
          "type": "uint256"
        }
      ],
      "stateMutability": "view",
      "type": "function"
    },
    {
      "inputs": [
        {
          "internalType": "address",
          "name": "newOwner",
          "type": "address"
        }
      ],
      "name": "transferOwnership",
      "outputs": [],
      "stateMutability": "nonpayable",
      "type": "function"
    },
    {
      "inputs": [
        {
          "internalType": "uint256",
          "name": "_submissionId",
          "type": "uint256"
        },
        {
          "internalType": "uint8",
          "name": "_qualityScore",
          "type": "uint8"
        },
        {
          "internalType": "bool",
          "name": "_approved",
          "type": "bool"
        }
      ],
      "name": "verifySubmission",
      "outputs": [],
      "stateMutability": "nonpayable",
      "type": "function"
    }
  ],
  "bytecode": "0x6080604052610e10600a553480156200001757600080fd5b50604051620023bb380380620023bb8339810160408190526200003a916200022f565b33806200006257604051631e4fbdf760e01b8152600060048201526024015b60405180910390fd5b6200006d81620001c1565b5060016002556001600160a01b038116620000cb5760405162461bcd60e51b815260206004820152601560248201527f496e76616c696420746f6b656e20616464726573730000000000000000000000604482015260640162000059565b600380546001600160a01b0319166001600160a01b039290921691909117905560647f5eff886ea0ce6ca488a3d6e336d6c0f75f46d19b42c06ce5ee98e42c96d256c75560c87fad67d757c34507f157cacfa2e3153e9f260a2244f30428821be7be64587ac55f5561012c7f6add646517a5b0f6793cd5891b7937d28a5b2981a5d88ebc7cd776088fea9041556101f47f625b35f5e76f098dd7c3a05b10e2e5e78a4a01228d60c3b143426cdf36d264555560967f9321edea6e3be4df59a344b401fab4f888b556fda1f954244cff9204bad624b855336000908152600760205260409020805460ff1916600117905562000261565b600180546001600160a01b0319169055620001dc81620001df565b50565b600080546001600160a01b038381166001600160a01b0319831681178455604051919092169283917f8be0079c531659141344cd1fd0a4f28419497f9722a3daafe3b4186f6b6457e09190a35050565b6000602082840312156200024257600080fd5b81516001600160a01b03811681146200025a57600080fd5b9392505050565b61214a80620002716000396000f3fe608060405234801561001057600080fd5b50600436106101da5760003560e01c80639000b3d611610104578063ca2dfd0a116100a2578063f2fde38b11610071578063f2fde38b1461043a578063f3f692061461044d578063f88da57614610460578063fe9eba151461048057600080fd5b8063ca2dfd0a14610406578063d795ede114610419578063e30c397814610421578063eec6d6131461043257600080fd5b8063a4365476116100de578063a43654761461037a578063aa68a0421461039a578063ad73349e146103ad578063c59d4847146103d657600080fd5b80639000b3d6146103555780639f3d545e14610368578063a39540161461037157600080fd5b80635226bc371161017c57806379ba50971161014b57806379ba5097146102fe5780637be768d3146103065780637ca73232146103315780638da5cb5b1461034457600080fd5b80635226bc37146102b7578063563282f9146102da578063715018a6146102ed57806374958e35146102f557600080fd5b806326beee6b116101b857806326beee6b1461023057806333105218146102515780633e8686cc146102845780634fc3f41a146102a457600080fd5b80631171bda9146101df5780632157b3a1146101f457806326a4e8d21461021d575b600080fd5b6101f26101ed36600461195c565b610489565b005b61020761020236600461199d565b6104f9565b60405161021491906119c1565b60405180910390f35b6101f261022b36600461199d565b610565565b61024361023e366004611a05565b610605565b604051908152602001610214565b61027461025f36600461199d565b60076020526000908152604090205460ff1681565b6040519015158152602001610214565b610297610292366004611a31565b610636565b6040516102149190611ac8565b6101f26102b2366004611a31565b61087d565b6102746102c5366004611a31565b60066020526000908152604090205460ff1681565b6101f26102e8366004611beb565b6108c0565b6101f2610a09565b610243600d5481565b6101f2610a1d565b600354610319906001600160a01b031681565b6040516001600160a01b039091168152602001610214565b61024361033f366004611d3c565b610a61565b6000546001600160a01b0316610319565b6101f261036336600461199d565b610e31565b610243600a5481565b610243600b5481565b61024361038836600461199d565b60096020526000908152604090205481565b6101f26103a8366004611dd1565b610ed6565b6103c06103bb366004611a31565b6111ac565b6040516102149a99989796959493929190611e04565b6103de61133e565b604080519586526020860194909452928401919091526060830152608082015260a001610214565b6101f261041436600461199d565b61142e565b6102436114d0565b6001546001600160a01b0316610319565b610243603281565b6101f261044836600461199d565b61151c565b6101f261045b366004611e8d565b61158d565b61024361046e366004611ea9565b60086020526000908152604090205481565b610243600c5481565b610491611617565b6001600160a01b0382166104e05760405162461bcd60e51b8152602060048201526011602482015270125b9d985b1a59081c9958da5c1a595b9d607a1b60448201526064015b60405180910390fd5b6104f46001600160a01b0384168383611644565b505050565b6001600160a01b03811660009081526005602090815260409182902080548351818402810184019094528084526060939283018282801561055957602002820191906000526020600020905b815481526020019060010190808311610545575b50505050509050919050565b61056d611617565b6001600160a01b0381166105bb5760405162461bcd60e51b8152602060048201526015602482015274496e76616c696420746f6b656e206164647265737360581b60448201526064016104d7565b600380546001600160a01b0319166001600160a01b0383169081179091556040517f2f0c7f17be551d1f4566672cd67adbe50173e96632f56ff80d80acc4ac00f32890600090a250565b6005602052816000526040600020818154811061062157600080fd5b90600052602060002001600091509150505481565b61063e6118da565b60045482106106875760405162461bcd60e51b8152602060048201526015602482015274125b9d985b1a59081cdd589b5a5cdcda5bdb881251605a1b60448201526064016104d7565b6004828154811061069a5761069a611ec4565b600091825260209182902060408051610140810190915260079092020180546001600160a01b0316825260018101805492939192918401916106db90611eda565b80601f016020809104026020016040519081016040528092919081815260200182805461070790611eda565b80156107545780601f1061072957610100808354040283529160200191610754565b820191906000526020600020905b81548152906001019060200180831161073757829003601f168201915b5050505050815260200160028201805461076d90611eda565b80601f016020809104026020016040519081016040528092919081815260200182805461079990611eda565b80156107e65780601f106107bb576101008083540402835291602001916107e6565b820191906000526020600020905b8154815290600101906020018083116107c957829003601f168201915b5050509183525050600382015460209091019060ff16600481111561080d5761080d611a90565b600481111561081e5761081e611a90565b8152600482015460208201526005820154604082015260069091015460ff8082161515606084015261010082048116151560808401526001600160a01b036201000083041660a0840152600160b01b9091041660c09091015292915050565b610885611617565b600a8190556040518181527f583d8b24c5439ab7d810e51e37e8db41ba66f1168fd7b752ceae0c7681c5272c9060200160405180910390a150565b3360009081526007602052604090205460ff16806108e857506000546001600160a01b031633145b6109255760405162461bcd60e51b815260206004820152600e60248201526d2737ba1030903b32b934b334b2b960911b60448201526064016104d7565b848314801561093357508281145b6109775760405162461bcd60e51b8152602060048201526015602482015274082e4e4c2f240d8cadccee8d040dad2e6dac2e8c6d605b1b60448201526064016104d7565b8460005b818110156109ff576109ed88888381811061099857610998611ec4565b905060200201358787848181106109b1576109b1611ec4565b90506020020160208101906109c69190611f14565b8686858181106109d8576109d8611ec4565b90506020020160208101906103a89190611f2f565b806109f781611f60565b91505061097b565b5050505050505050565b610a11611617565b610a1b6000611696565b565b60015433906001600160a01b03168114610a555760405163118cdaa760e01b81526001600160a01b03821660048201526024016104d7565b610a5e81611696565b50565b6000816004816004811115610a7857610a78611a90565b1115610ac65760405162461bcd60e51b815260206004820152601760248201527f496e76616c6964207375626d697373696f6e207479706500000000000000000060448201526064016104d7565b8451600003610b0b5760405162461bcd60e51b8152602060048201526011602482015270135bd9195b081251081c995c5d5a5c9959607a1b60448201526064016104d7565b8351600003610b515760405162461bcd60e51b815260206004820152601260248201527112541194c81a185cda081c995c5d5a5c995960721b60448201526064016104d7565b600a5433600090815260096020526040902054610b6e9190611f79565b421015610bbd5760405162461bcd60e51b815260206004820152601a60248201527f5375626d697373696f6e20636f6f6c646f776e2061637469766500000000000060448201526064016104d7565b60048054905091506000604051806101400160405280336001600160a01b03168152602001878152602001868152602001856004811115610c0057610c00611a90565b815242602080830191909152600060408301819052606083018190526080830181905260a0830181905260c090920182905260048054600181018255925282517f8a35acfbc15ff81a39ae7d344fd709f28e8600b4aa8c65c6b64bfe7fe36bd19b600790930292830180546001600160a01b0319166001600160a01b0390921691909117815590830151929350839290917f8a35acfbc15ff81a39ae7d344fd709f28e8600b4aa8c65c6b64bfe7fe36bd19c0190610cbe9082611fe0565b5060408201516002820190610cd39082611fe0565b50606082015160038201805460ff19166001836004811115610cf757610cf7611a90565b02179055506080820151600482015560a082015160058083019190915560c08301516006928301805460e0860151610100808801516101209098015161ffff1990931694151561ff001916949094179015159093029290921762010000600160b81b031916620100006001600160a01b039096169590950260ff60b01b191694909417600160b01b60ff90921691909102179092553360008181526020938452604080822080546001818101835591845286842001899055888352938552808220805460ff191690941790935590815260099092528120429055600b805491610ddf83611f60565b9190505550336001600160a01b0316837fb49826e5cda0e796a4f2c34777098f46a57a469a2c7298cbb4e4c700618d317b8887604051610e209291906120a0565b60405180910390a350509392505050565b610e39611617565b6001600160a01b038116610e8a5760405162461bcd60e51b8152602060048201526018602482015277496e76616c6964207665726966696572206164647265737360401b60448201526064016104d7565b6001600160a01b038116600081815260076020526040808220805460ff19166001179055517f6d05492139c5ea989514a5d2150c028041e5c087e2a39967f67dc7d2655adb819190a250565b3360009081526007602052604090205460ff1680610efe57506000546001600160a01b031633145b610f3b5760405162461bcd60e51b815260206004820152600e60248201526d2737ba1030903b32b934b334b2b960911b60448201526064016104d7565b6004548310610f845760405162461bcd60e51b8152602060048201526015602482015274125b9d985b1a59081cdd589b5a5cdcda5bdb881251605a1b60448201526064016104d7565b60008381526006602052604090205460ff16610fd55760405162461bcd60e51b815260206004820152601060248201526f105b1c9958591e481d995c9a599a595960821b60448201526064016104d7565b60648260ff16111561101f5760405162461bcd60e51b8152602060048201526013602482015272053636f7265206d75737420626520302d31303606c1b60448201526064016104d7565b60006004848154811061103457611034611ec4565b6000918252602080832060079290920290910160068181018054600162010000600160b81b0319909116600160b01b60ff8b160262010000600160b01b031916173362010000021760ff1990811691909117909155888552925260409092208054909116905590508180156110ad575060328360ff1610155b1561114b576003810154678ac7230489e8000090600090600890829060ff1660048111156110dd576110dd611a90565b60048111156110ee576110ee611a90565b81526020810191909152604001600090812054915060ff861690612710611116836064611f79565b61112085876120c2565b61112a91906120c2565b61113491906120d9565b600586018190559050611146886116af565b505050505b600c805490600061115b83611f60565b909155505060058101546040805160ff861681526020810192909252339186917f546926cbe80b518c3b17c99cca062ada4b6bc6777e5124c013976fd99de348a8910160405180910390a350505050565b600481815481106111bc57600080fd5b6000918252602090912060079091020180546001820180546001600160a01b039092169350906111eb90611eda565b80601f016020809104026020016040519081016040528092919081815260200182805461121790611eda565b80156112645780601f1061123957610100808354040283529160200191611264565b820191906000526020600020905b81548152906001019060200180831161124757829003601f168201915b50505050509080600201805461127990611eda565b80601f01602080910402602001604051908101604052809291908181526020018280546112a590611eda565b80156112f25780601f106112c7576101008083540402835291602001916112f2565b820191906000526020600020905b8154815290600101906020018083116112d557829003601f168201915b50505050600383015460048401546005850154600690950154939460ff92831694919350918082169161010081048216916201000082046001600160a01b031691600160b01b9004168a565b6000806000806000600b54600c54600d54306001600160a01b031663d795ede16040518163ffffffff1660e01b8152600401602060405180830381865afa15801561138d573d6000803e3d6000fd5b505050506040513d601f19601f820116820180604052508101906113b191906120fb565b6003546040516370a0823160e01b81523060048201526001600160a01b03909116906370a0823190602401602060405180830381865afa1580156113f9573d6000803e3d6000fd5b505050506040513d601f19601f8201168201806040525081019061141d91906120fb565b945094509450945094509091929394565b611436611617565b6001600160a01b0381166114875760405162461bcd60e51b8152602060048201526018602482015277496e76616c6964207665726966696572206164647265737360401b60448201526064016104d7565b6001600160a01b038116600081815260076020526040808220805460ff19169055517f44a3cd4eb5cc5748f6169df057b1cb2ae4c383e87cd94663c430e095d4cba4249190a250565b600454600090815b818110156115175760008181526006602052604090205460ff1615611505578261150181611f60565b9350505b8061150f81611f60565b9150506114d8565b505090565b611524611617565b600180546001600160a01b0383166001600160a01b031990911681179091556115556000546001600160a01b031690565b6001600160a01b03167f38d16b8cac22d99fc7c124b9cd0de2d3fa1faef420bfe791d8c362d765e2270060405160405180910390a350565b611595611617565b80600860008460048111156115ac576115ac611a90565b60048111156115bd576115bd611a90565b81526020810191909152604001600020558160048111156115e0576115e0611a90565b6040518281527fff03084947f11bc80559990f3b6c12bc929379c031cf212ae413388044d4bc129060200160405180910390a25050565b6000546001600160a01b03163314610a1b5760405163118cdaa760e01b81523360048201526024016104d7565b604080516001600160a01b038416602482015260448082018490528251808303909101815260649091019091526020810180516001600160e01b031663a9059cbb60e01b1790526104f49084906117eb565b600180546001600160a01b0319169055610a5e81611862565b6116b76118b2565b6000600482815481106116cc576116cc611ec4565b60009182526020909120600790910201600681015490915060ff1680156116fd57506006810154610100900460ff16155b801561170c5750600581015415155b6117505760405162461bcd60e51b8152602060048201526015602482015274496e76616c6964207061796d656e7420737461746560581b60448201526064016104d7565b60068101805461ff0019166101001790556005810154600d546117739190611f79565b600d5580546005820154600354611798926001600160a01b0391821692911690611644565b805460058201546040519081526001600160a01b039091169083907f04492fab062412e7e4e5f46c9e919f1640652946a5e163ad6e6c1c03d87954d29060200160405180910390a350610a5e6001600255565b600080602060008451602086016000885af18061180e576040513d6000823e3d81fd5b50506000513d91508115611826578060011415611833565b6001600160a01b0384163b155b1561185c57604051635274afe760e01b81526001600160a01b03851660048201526024016104d7565b50505050565b600080546001600160a01b038381166001600160a01b0319831681178455604051919092169283917f8be0079c531659141344cd1fd0a4f28419497f9722a3daafe3b4186f6b6457e09190a35050565b60028054036118d457604051633ee5aeb560e01b815260040160405180910390fd5b60028055565b60405180610140016040528060006001600160a01b0316815260200160608152602001606081526020016000600481111561191757611917611a90565b815260006020820181905260408201819052606082018190526080820181905260a0820181905260c09091015290565b6001600160a01b0381168114610a5e57600080fd5b60008060006060848603121561197157600080fd5b833561197c81611947565b9250602084013561198c81611947565b929592945050506040919091013590565b6000602082840312156119af57600080fd5b81356119ba81611947565b9392505050565b6020808252825182820181905260009190848201906040850190845b818110156119f9578351835292840192918401916001016119dd565b50909695505050505050565b60008060408385031215611a1857600080fd5b8235611a2381611947565b946020939093013593505050565b600060208284031215611a4357600080fd5b5035919050565b6000815180845260005b81811015611a7057602081850181015186830182015201611a54565b506000602082860101526020601f19601f83011685010191505092915050565b634e487b7160e01b600052602160045260246000fd5b60058110611ac457634e487b7160e01b600052602160045260246000fd5b9052565b60208152611ae26020820183516001600160a01b03169052565b60006020830151610140806040850152611b00610160850183611a4a565b91506040850151601f19858403016060860152611b1d8382611a4a565b9250506060850151611b326080860182611aa6565b50608085015160a085015260a085015160c085015260c0850151611b5a60e086018215159052565b5060e0850151610100611b708187018315159052565b8601519050610120611b8c868201836001600160a01b03169052565b9095015160ff1693019290925250919050565b60008083601f840112611bb157600080fd5b50813567ffffffffffffffff811115611bc957600080fd5b6020830191508360208260051b8501011115611be457600080fd5b9250929050565b60008060008060008060608789031215611c0457600080fd5b863567ffffffffffffffff80821115611c1c57600080fd5b611c288a838b01611b9f565b90985096506020890135915080821115611c4157600080fd5b611c4d8a838b01611b9f565b90965094506040890135915080821115611c6657600080fd5b50611c7389828a01611b9f565b979a9699509497509295939492505050565b634e487b7160e01b600052604160045260246000fd5b600082601f830112611cac57600080fd5b813567ffffffffffffffff80821115611cc757611cc7611c85565b604051601f8301601f19908116603f01168101908282118183101715611cef57611cef611c85565b81604052838152866020858801011115611d0857600080fd5b836020870160208301376000602085830101528094505050505092915050565b803560058110611d3757600080fd5b919050565b600080600060608486031215611d5157600080fd5b833567ffffffffffffffff80821115611d6957600080fd5b611d7587838801611c9b565b94506020860135915080821115611d8b57600080fd5b50611d9886828701611c9b565b925050611da760408501611d28565b90509250925092565b803560ff81168114611d3757600080fd5b80358015158114611d3757600080fd5b600080600060608486031215611de657600080fd5b83359250611df660208501611db0565b9150611da760408501611dc1565b6001600160a01b038b8116825261014060208301819052600091611e2a8483018e611a4a565b91508382036040850152611e3e828d611a4a565b9250611e4d606085018c611aa6565b8960808501528860a085015287151560c085015286151560e0850152808616610100850152505060ff83166101208301529b9a5050505050505050505050565b60008060408385031215611ea057600080fd5b611a2383611d28565b600060208284031215611ebb57600080fd5b6119ba82611d28565b634e487b7160e01b600052603260045260246000fd5b600181811c90821680611eee57607f821691505b602082108103611f0e57634e487b7160e01b600052602260045260246000fd5b50919050565b600060208284031215611f2657600080fd5b6119ba82611db0565b600060208284031215611f4157600080fd5b6119ba82611dc1565b634e487b7160e01b600052601160045260246000fd5b600060018201611f7257611f72611f4a565b5060010190565b80820180821115611f8c57611f8c611f4a565b92915050565b601f8211156104f457600081815260208120601f850160051c81016020861015611fb95750805b601f850160051c820191505b81811015611fd857828155600101611fc5565b505050505050565b815167ffffffffffffffff811115611ffa57611ffa611c85565b61200e816120088454611eda565b84611f92565b602080601f831160018114612043576000841561202b5750858301515b600019600386901b1c1916600185901b178555611fd8565b600085815260208120601f198616915b8281101561207257888601518255948401946001909101908401612053565b50858210156120905787850151600019600388901b60f8161c191681555b5050505050600190811b01905550565b6040815260006120b36040830185611a4a565b90506119ba6020830184611aa6565b8082028115828204841417611f8c57611f8c611f4a565b6000826120f657634e487b7160e01b600052601260045260246000fd5b500490565b60006020828403121561210d57600080fd5b505191905056fea264697066735822122035bb09ad66f53b207d5b697c389533f91b2eb7f8923cfddab6a57500c5d8851f64736f6c63430008140033",
  "linkReferences": {},
  "deployedLinkReferences": {}
}